{
  "abi": [
    {
      "anonymous": false,
      "inputs": [
        {
          "indexed": false,
          "internalType": "string",
          "name": "reason",
          "type": "string"
        }
      ],
      "name": "Error",
      "type": "event"
    },
    {
      "anonymous": false,
      "inputs": [
        {
          "indexed": true,
          "internalType": "address",
          "name": "previousOwner",
          "type": "address"
        },
        {
          "indexed": true,
          "internalType": "address",
          "name": "newOwner",
          "type": "address"
        }
      ],
      "name": "OwnershipTransferred",
      "type": "event"
    },
    {
      "anonymous": false,
      "inputs": [
        {
          "indexed": false,
          "internalType": "address",
          "name": "sender",
          "type": "address"
        },
        {
          "indexed": false,
          "internalType": "contract IERC20",
          "name": "srcToken",
          "type": "address"
        },
        {
          "indexed": false,
          "internalType": "contract IERC20",
          "name": "dstToken",
          "type": "address"
        },
        {
          "indexed": false,
          "internalType": "address",
          "name": "dstReceiver",
          "type": "address"
        },
        {
          "indexed": false,
          "internalType": "uint256",
          "name": "spentAmount",
          "type": "uint256"
        },
        {
          "indexed": false,
          "internalType": "uint256",
          "name": "returnAmount",
          "type": "uint256"
        }
      ],
      "name": "Swapped",
      "type": "event"
    },
    {
      "inputs": [],
      "name": "destroy",
      "outputs": [],
      "stateMutability": "nonpayable",
      "type": "function"
    },
    {
      "inputs": [
        {
          "internalType": "contract IAggregationExecutor",
          "name": "caller",
          "type": "address"
        },
        {
          "components": [
            {
              "internalType": "contract IERC20",
              "name": "srcToken",
              "type": "address"
            },
            {
              "internalType": "contract IERC20",
              "name": "dstToken",
              "type": "address"
            },
            {
              "internalType": "address",
              "name": "srcReceiver",
              "type": "address"
            },
            {
              "internalType": "address",
              "name": "dstReceiver",
              "type": "address"
            },
            {
              "internalType": "uint256",
              "name": "amount",
              "type": "uint256"
            },
            {
              "internalType": "uint256",
              "name": "minReturnAmount",
              "type": "uint256"
            },
            {
              "internalType": "uint256",
              "name": "flags",
              "type": "uint256"
            },
            {
              "internalType": "bytes",
              "name": "permit",
              "type": "bytes"
            }
          ],
          "internalType": "struct AggregationRouterV3.SwapDescription",
          "name": "desc",
          "type": "tuple"
        },
        {
          "internalType": "bytes",
          "name": "data",
          "type": "bytes"
        }
      ],
      "name": "discountedSwap",
      "outputs": [
        {
          "internalType": "uint256",
          "name": "returnAmount",
          "type": "uint256"
        },
        {
          "internalType": "uint256",
          "name": "gasLeft",
          "type": "uint256"
        },
        {
          "internalType": "uint256",
          "name": "chiSpent",
          "type": "uint256"
        }
      ],
      "stateMutability": "payable",
      "type": "function"
    },
    {
      "inputs": [],
      "name": "owner",
      "outputs": [
        {
          "internalType": "address",
          "name": "",
          "type": "address"
        }
      ],
      "stateMutability": "view",
      "type": "function"
    },
    {
      "inputs": [],
      "name": "renounceOwnership",
      "outputs": [],
      "stateMutability": "nonpayable",
      "type": "function"
    },
    {
      "inputs": [
        {
          "internalType": "contract IERC20",
          "name": "token",
          "type": "address"
        },
        {
          "internalType": "uint256",
          "name": "amount",
          "type": "uint256"
        }
      ],
      "name": "rescueFunds",
      "outputs": [],
      "stateMutability": "nonpayable",
      "type": "function"
    },
    {
      "inputs": [
        {
          "internalType": "contract IAggregationExecutor",
          "name": "caller",
          "type": "address"
        },
        {
          "components": [
            {
              "internalType": "contract IERC20",
              "name": "srcToken",
              "type": "address"
            },
            {
              "internalType": "contract IERC20",
              "name": "dstToken",
              "type": "address"
            },
            {
              "internalType": "address",
              "name": "srcReceiver",
              "type": "address"
            },
            {
              "internalType": "address",
              "name": "dstReceiver",
              "type": "address"
            },
            {
              "internalType": "uint256",
              "name": "amount",
              "type": "uint256"
            },
            {
              "internalType": "uint256",
              "name": "minReturnAmount",
              "type": "uint256"
            },
            {
              "internalType": "uint256",
              "name": "flags",
              "type": "uint256"
            },
            {
              "internalType": "bytes",
              "name": "permit",
              "type": "bytes"
            }
          ],
          "internalType": "struct AggregationRouterV3.SwapDescription",
          "name": "desc",
          "type": "tuple"
        },
        {
          "internalType": "bytes",
          "name": "data",
          "type": "bytes"
        }
      ],
      "name": "swap",
      "outputs": [
        {
          "internalType": "uint256",
          "name": "returnAmount",
          "type": "uint256"
        },
        {
          "internalType": "uint256",
          "name": "gasLeft",
          "type": "uint256"
        }
      ],
      "stateMutability": "payable",
      "type": "function"
    },
    {
      "inputs": [
        {
          "internalType": "address",
          "name": "newOwner",
          "type": "address"
        }
      ],
      "name": "transferOwnership",
      "outputs": [],
      "stateMutability": "nonpayable",
      "type": "function"
    },
    {
      "inputs": [
        {
          "internalType": "contract IERC20",
          "name": "srcToken",
          "type": "address"
        },
        {
          "internalType": "uint256",
          "name": "amount",
          "type": "uint256"
        },
        {
          "internalType": "uint256",
          "name": "minReturn",
          "type": "uint256"
        },
        {
          "internalType": "bytes32[]",
          "name": "",
          "type": "bytes32[]"
        }
      ],
      "name": "unoswap",
      "outputs": [
        {
          "internalType": "uint256",
          "name": "returnAmount",
          "type": "uint256"
        }
      ],
      "stateMutability": "payable",
      "type": "function"
    },
    {
      "inputs": [
        {
          "internalType": "contract IERC20",
          "name": "srcToken",
          "type": "address"
        },
        {
          "internalType": "uint256",
          "name": "amount",
          "type": "uint256"
        },
        {
          "internalType": "uint256",
          "name": "minReturn",
          "type": "uint256"
        },
        {
          "internalType": "bytes32[]",
          "name": "pools",
          "type": "bytes32[]"
        },
        {
          "internalType": "bytes",
          "name": "permit",
          "type": "bytes"
        }
      ],
      "name": "unoswapWithPermit",
      "outputs": [
        {
          "internalType": "uint256",
          "name": "returnAmount",
          "type": "uint256"
        }
      ],
      "stateMutability": "payable",
      "type": "function"
    },
    {
      "stateMutability": "payable",
      "type": "receive"
    }
  ],
  "bytecode": "608060405234801561001057600080fd5b50600061001b61006a565b600080546001600160a01b0319166001600160a01b0383169081178255604051929350917f8be0079c531659141344cd1fd0a4f28419497f9722a3daafe3b4186f6b6457e0908290a35061006e565b3390565b6123368061007d6000396000f3fe60806040526004361061008a5760003560e01c80637c025200116100595780637c0252001461013f57806383197ef0146101605780638da5cb5b14610175578063a1251d7514610197578063f2fde38b146101aa576100ba565b80632e95b6c8146100bf5780636c4a483e146100e8578063715018a61461010a57806378e3214f1461011f576100ba565b366100ba57333214156100b85760405162461bcd60e51b81526004016100af90611ed0565b60405180910390fd5b005b600080fd5b6100d26100cd3660046119ef565b6101ca565b6040516100df9190611c71565b60405180910390f35b6100fb6100f6366004611919565b610521565b6040516100df9392919061221c565b34801561011657600080fd5b506100b861080c565b34801561012b57600080fd5b506100b861013a3660046119c4565b610895565b61015261014d366004611919565b6108ec565b6040516100df92919061220e565b34801561016c57600080fd5b506100b8610cd0565b34801561018157600080fd5b5061018a610d12565b6040516100df9190611c7a565b6100d26101a5366004611a57565b610d21565b3480156101b657600080fd5b506100b86101c53660046118dd565b610d48565b60006102a0565b3d6000803e3d6000fd5b62461bcd60e51b600052600160e51b60205280604052816000fd5b6000630240bc6b60e21b8252604082600484875afa610217576102176101d1565b81516020830151861561022657905b63022c0d9f60e01b8452878502633b9aca00929092028201910204905084801561025c578160048401526000602484015261026a565b600060048401528160248401525b50866044830152608060648301526000608483015260008060a4846000885af1610296576102966101d1565b9695505050505050565b60405160c0810160405260046064350180356020820191508060200282019050813589600081146103325734156102f1576102f160557111696e76616c6964206d73672e76616c756560581b6101db565b6323b872dd60e01b85523360048601526001600160a01b038216602486015289604486015260008060648760008f5af161032d5761032d6101d1565b6103d7565b348a146103595761035960557111696e76616c6964206d73672e76616c756560581b6101db565b630d0e30db60e41b85526000806004878d73c02aaa39b223fe8d0a0e5c4f27ead9083c756cc25af161038d5761038d6101d1565b63a9059cbb60e01b85526001600160a01b0382166004860152896024860152600080604487600073c02aaa39b223fe8d0a0e5c4f27ead9083c756cc25af16103d7576103d76101d1565b50889450602083015b8281101561042857803561041c6001600160a01b03821663ffffffff60a01b851660a01c600160ff1b86166001600160a01b0387168b8b6101f6565b965091506020016103e0565b50600160fe1b811680156104b75761045f3063ffffffff60a01b841660a01c600160ff1b85166001600160a01b0386168a8a6101f6565b9550632e1a7d4d60e01b8552856004860152600080602487600073c02aaa39b223fe8d0a0e5c4f27ead9083c756cc25af161049c5761049c6101d1565b60008060008089335af16104b2576104b26101d1565b6104e3565b6104e03363ffffffff60a01b841660a01c600160ff1b85166001600160a01b0386168a8a6101f6565b95505b50505050508381101561051857610518605a7c164d696e2072657475726e206e6f7420726561636865640000000000006101db565b95945050505050565b6000806000805a9050600060c08801356008161561054057503361056c565b60c08801356010161561055457503261056c565b60405162461bcd60e51b81526004016100af90611fa6565b600080306001600160a01b0316637c02520060e01b8c8c8c8c6040516024016105989493929190611d1f565b60408051601f198184030181529181526020820180516001600160e01b03166001600160e01b03199094169390931790925290516105d69190611b80565b600060405180830381855af49150503d8060008114610611576040519150601f19603f3d011682016040523d82523d6000602084013e610616565b606091505b5091509150811561063d57808060200190518101906106359190611b02565b5096506106d7565b34156106715760405133903480156108fc02916000818181858888f1935050505015801561066f573d6000803e3d6000fd5b505b7f08c379a0afcc32b1a39302f7cb8073359698411ab5fd6e3edb2c02c0b5fba8aa6106c1826040518060400160405280600d81526020016c029bbb0b8103330b4b632b21d1609d1b815250610e08565b6040516106ce9190611df4565b60405180910390a15b6000808c6001600160a01b0316631d97832e6106f45a8990611021565b8e60c0013560003690506040518463ffffffff1660e01b815260040161071c9392919061221c565b604080518083038186803b15801561073357600080fd5b505afa158015610747573d6000803e3d6000fd5b505050506040513d601f19601f8201168201806040525081019061076b9190611997565b909250905080156107f95760405163079d229f60e01b81526001600160a01b0383169063079d229f906107a49088908590600401611ce2565b602060405180830381600087803b1580156107be57600080fd5b505af11580156107d2573d6000803e3d6000fd5b505050506040513d601f19601f820116820180604052508101906107f69190611aea565b96505b5a97505050505050509450945094915050565b610814611049565b6001600160a01b0316610825610d12565b6001600160a01b03161461084b5760405162461bcd60e51b81526004016100af9061208c565b600080546040516001600160a01b03909116907f8be0079c531659141344cd1fd0a4f28419497f9722a3daafe3b4186f6b6457e0908390a3600080546001600160a01b0319169055565b61089d611049565b6001600160a01b03166108ae610d12565b6001600160a01b0316146108d45760405162461bcd60e51b81526004016100af9061208c565b6108e86001600160a01b038316338361104d565b5050565b60008060008560a00135116109135760405162461bcd60e51b81526004016100af90612014565b826109305760405162461bcd60e51b81526004016100af906120f8565b60c0850135600061094460208801886118dd565b905060006109586040890160208a016118dd565b905060028316156109a957610975826001600160a01b03166110f8565b610980576000610986565b87608001355b34116109a45760405162461bcd60e51b81526004016100af90611efe565b6109ea565b6109bb826001600160a01b03166110f8565b6109c65760006109cc565b87608001355b34146109ea5760405162461bcd60e51b81526004016100af90611efe565b6004831615610a6757610a05826001600160a01b03166110f8565b15610a225760405162461bcd60e51b81526004016100af90611e27565b610a3d8260808a0135610a3860e08c018c612232565b611134565b610a6733610a5160608b0160408c016118dd565b6001600160a01b038516919060808c01356112e7565b600080610a7a60808b0160608c016118dd565b6001600160a01b031614610a9d57610a9860808a0160608b016118dd565b610a9f565b335b9050600060018516610ab2576000610ac5565b610ac56001600160a01b0385163361133f565b90506000610adc6001600160a01b0385168461133f565b90506000808d6001600160a01b03163463d9c4535760e01b8e8e604051602001610b0893929190611b5c565b60408051601f1981840301815290829052610b2291611b80565b60006040518083038185875af1925050503d8060008114610b5f576040519150601f19603f3d011682016040523d82523d6000602084013e610b64565b606091505b509150915081610bbb57610ba28160405180604001604052806012815260200171031b0b636213cba32b9903330b4b632b21d160751b815250610e08565b60405162461bcd60e51b81526004016100af9190611df4565b505060808b0135610bdf82610bd96001600160a01b0388168761133f565b90611021565b98506001871615610c5857610c17610c006001600160a01b0388163361133f565b610bd98e60800135866113e390919063ffffffff16565b9050610c2760a08d01358261140f565b610c358a60808f013561140f565b1015610c535760405162461bcd60e51b81526004016100af90611fdd565b610c7c565b8b60a00135891015610c7c5760405162461bcd60e51b81526004016100af90611fdd565b7fd6d4f5681c246c9f42c203e287975af1601f8df8035a9251f79aab5c8f09e2f833878787858e604051610cb596959493929190611ca8565b60405180910390a15a97505050505050505094509492505050565b610cd8611049565b6001600160a01b0316610ce9610d12565b6001600160a01b031614610d0f5760405162461bcd60e51b81526004016100af9061208c565b33ff5b6000546001600160a01b031690565b6000610d2f88888585611134565b610d3c88888888886101ca565b98975050505050505050565b610d50611049565b6001600160a01b0316610d61610d12565b6001600160a01b031614610d875760405162461bcd60e51b81526004016100af9061208c565b6001600160a01b038116610dad5760405162461bcd60e51b81526004016100af90611e53565b600080546040516001600160a01b03808516939216917f8be0079c531659141344cd1fd0a4f28419497f9722a3daafe3b4186f6b6457e091a3600080546001600160a01b0319166001600160a01b0392909216919091179055565b60606044835110158015610e3b575082600081518110610e2457fe5b6020910101516001600160f81b031916600160fb1b145b8015610e66575082600181518110610e4f57fe5b6020910101516001600160f81b03191660c360f81b145b8015610e91575082600281518110610e7a57fe5b6020910101516001600160f81b031916607960f81b145b8015610ebc575082600381518110610ea557fe5b6020910101516001600160f81b031916600560fd1b145b15610f18576060604484019050805160440184511015610eee5760405162461bcd60e51b81526004016100af9061212f565b8281604051602001610f01929190611c3c565b60405160208183030381529060405291505061101b565b82516024148015610f48575082600081518110610f3157fe5b6020910101516001600160f81b031916602760f91b145b8015610f73575082600181518110610f5c57fe5b6020910101516001600160f81b031916600960fb1b145b8015610f9e575082600281518110610f8757fe5b6020910101516001600160f81b031916607b60f81b145b8015610fc9575082600381518110610fb257fe5b6020910101516001600160f81b031916607160f81b145b15610fee57602483015182610fdd82611449565b604051602001610f01929190611b9c565b81610ff88461146f565b604051602001611009929190611beb565b60405160208183030381529060405290505b92915050565b6000828211156110435760405162461bcd60e51b81526004016100af90611f29565b50900390565b3390565b80156110f35761105c836110f8565b1561109d576040516001600160a01b0383169082156108fc029083906000818181858888f19350505050158015611097573d6000803e3d6000fd5b506110f3565b6110f38363a9059cbb60e01b84846040516024016110bc929190611ce2565b60408051601f198184030181529190526020810180516001600160e01b03166001600160e01b0319909316929092179091526115ee565b505050565b60006001600160a01b038216158061112c57506001600160a01b03821673eeeeeeeeeeeeeeeeeeeeeeeeeeeeeeeeeeeeeeee145b90505b919050565b60e08114156112e157600080856001600160a01b031663d505accf60e01b858560405160200161116693929190611b5c565b60408051601f198184030181529082905261118091611b80565b6000604051808303816000865af19150503d80600081146111bd576040519150601f19603f3d011682016040523d82523d6000602084013e6111c2565b606091505b5091509150816112de576000611204826040518060400160405280601481526020017302832b936b4ba1031b0b636103330b4b632b21d160651b815250610e08565b905085876001600160a01b031663dd62ed3e33306040518363ffffffff1660e01b8152600401611235929190611c8e565b60206040518083038186803b15801561124d57600080fd5b505afa158015611261573d6000803e3d6000fd5b505050506040513d601f19601f820116820180604052508101906112859190611aea565b10156112a5578060405162461bcd60e51b81526004016100af9190611df4565b7f08c379a0afcc32b1a39302f7cb8073359698411ab5fd6e3edb2c02c0b5fba8aa816040516112d49190611df4565b60405180910390a1505b50505b50505050565b6112e1846323b872dd60e01b85858560405160240161130893929190611cfb565b60408051601f198184030181529190526020810180516001600160e01b03166001600160e01b0319909316929092179091526116a4565b600061134a836110f8565b1561136057506001600160a01b0381163161101b565b6040516370a0823160e01b81526001600160a01b038416906370a082319061138c908590600401611c7a565b60206040518083038186803b1580156113a457600080fd5b505afa1580156113b8573d6000803e3d6000fd5b505050506040513d601f19601f820116820180604052508101906113dc9190611aea565b905061101b565b6000828201838110156114085760405162461bcd60e51b81526004016100af90611e99565b9392505050565b60008261141e5750600061101b565b8282028284828161142b57fe5b04146114085760405162461bcd60e51b81526004016100af9061204b565b606061112c8260405160200161145f9190611c71565b6040516020818303038152906040525b80516060906f181899199a1a9b1b9c1cb0b131b232b360811b9060009060029081020167ffffffffffffffff811180156114a857600080fd5b506040519080825280601f01601f1916602001820160405280156114d3576020820181803683370190505b509050600360fc1b816000815181106114e857fe5b60200101906001600160f81b031916908160001a905350600f60fb1b8160018151811061151157fe5b60200101906001600160f81b031916908160001a90535060005b84518110156115e65782600486838151811061154357fe5b01602001516001600160f81b031916901c60f81c6010811061156157fe5b1a60f81b82826002026002018151811061157757fe5b60200101906001600160f81b031916908160001a9053508285828151811061159b57fe5b60209101015160f81c600f16601081106115b157fe5b1a60f81b8282600202600301815181106115c757fe5b60200101906001600160f81b031916908160001a90535060010161152b565b509392505050565b600080836001600160a01b0316836040516116099190611b80565b6000604051808303816000865af19150503d8060008114611646576040519150601f19603f3d011682016040523d82523d6000602084013e61164b565b606091505b50915091508161166d5760405162461bcd60e51b81526004016100af9061215e565b8051156112e1578080602001905181019061168891906118f9565b6112e15760405162461bcd60e51b81526004016100af906120c1565b60006116f9826040518060400160405280602081526020017f5361666545524332303a206c6f772d6c6576656c2063616c6c206661696c6564815250856001600160a01b03166117339092919063ffffffff16565b8051909150156110f3578080602001905181019061171791906118f9565b6110f35760405162461bcd60e51b81526004016100af906121c4565b6060611742848460008561174a565b949350505050565b60608247101561176c5760405162461bcd60e51b81526004016100af90611f60565b6117758561180a565b6117915760405162461bcd60e51b81526004016100af9061218d565b600080866001600160a01b031685876040516117ad9190611b80565b60006040518083038185875af1925050503d80600081146117ea576040519150601f19603f3d011682016040523d82523d6000602084013e6117ef565b606091505b50915091506117ff828286611810565b979650505050505050565b3b151590565b6060831561181f575081611408565b82511561182f5782518084602001fd5b8160405162461bcd60e51b81526004016100af9190611df4565b803561112f816122e8565b60008083601f840112611865578182fd5b50813567ffffffffffffffff81111561187c578182fd5b602083019150836020808302850101111561189657600080fd5b9250929050565b60008083601f8401126118ae578182fd5b50813567ffffffffffffffff8111156118c5578182fd5b60208301915083602082850101111561189657600080fd5b6000602082840312156118ee578081fd5b8135611408816122e8565b60006020828403121561190a578081fd5b81518015158114611408578182fd5b6000806000806060858703121561192e578283fd5b8435611939816122e8565b9350602085013567ffffffffffffffff80821115611955578485fd5b908601906101008289031215611969578485fd5b9093506040860135908082111561197e578384fd5b5061198b8782880161189d565b95989497509550505050565b600080604083850312156119a9578182fd5b82516119b4816122e8565b6020939093015192949293505050565b600080604083850312156119d6578182fd5b82356119e1816122e8565b946020939093013593505050565b600080600080600060808688031215611a06578081fd5b8535611a11816122e8565b94506020860135935060408601359250606086013567ffffffffffffffff811115611a3a578182fd5b611a4688828901611854565b969995985093965092949392505050565b600080600080600080600060a0888a031215611a71578182fd5b8735611a7c816122e8565b96506020880135955060408801359450606088013567ffffffffffffffff80821115611aa6578384fd5b611ab28b838c01611854565b909650945060808a0135915080821115611aca578384fd5b50611ad78a828b0161189d565b989b979a50959850939692959293505050565b600060208284031215611afb578081fd5b5051919050565b60008060408385031215611b14578182fd5b505080516020909101519092909150565b6001600160a01b03169052565b60008284528282602086013780602084860101526020601f19601f85011685010190509392505050565b6001600160e01b031984168152600082846004840137910160040190815292915050565b60008251611b928184602087016122bc565b9190910192915050565b60008351611bae8184602088016122bc565b650a0c2dcd2c6560d31b9083019081528351611bd18160068401602088016122bc565b602960f81b60069290910191820152600701949350505050565b60008351611bfd8184602088016122bc565b670aadcd6dcdeeedc560c31b9083019081528351611c228160088401602088016122bc565b602960f81b60089290910191820152600901949350505050565b60008351611c4e8184602088016122bc565b6508ae4e4dee4560d31b9083019081528351611bd18160068401602088016122bc565b90815260200190565b6001600160a01b0391909116815260200190565b6001600160a01b0392831681529116602082015260400190565b6001600160a01b0396871681529486166020860152928516604085015293166060830152608082019290925260a081019190915260c00190565b6001600160a01b03929092168252602082015260400190565b6001600160a01b039384168152919092166020820152604081019190915260600190565b6001600160a01b0385168152606060208201819052600090611d4b908301611d4687611849565b611b25565b611d5760208601611849565b611d646080840182611b25565b50611d7160408601611849565b611d7e60a0840182611b25565b50611d8b60608601611849565b611d9860c0840182611b25565b50608085013560e083015261010060a08601358184015260c0860135610120840152611dc760e0870187612277565b82610140860152611ddd61016086018284611b32565b9250505082810360408401526117ff818587611b32565b6000602082528251806020840152611e138160408501602087016122bc565b601f01601f19169190910160400192915050565b602080825260129082015271086d8c2d2da40e8ded6cadc40d2e6408aa8960731b604082015260600190565b60208082526026908201527f4f776e61626c653a206e6577206f776e657220697320746865207a65726f206160408201526564647265737360d01b606082015260800190565b6020808252601b908201527f536166654d6174683a206164646974696f6e206f766572666c6f770000000000604082015260600190565b6020808252601490820152731155120819195c1bdcda5d081c995a9958dd195960621b604082015260600190565b602080825260119082015270496e76616c6964206d73672e76616c756560781b604082015260600190565b6020808252601e908201527f536166654d6174683a207375627472616374696f6e206f766572666c6f770000604082015260600190565b60208082526026908201527f416464726573733a20696e73756666696369656e742062616c616e636520666f6040820152651c8818d85b1b60d21b606082015260800190565b60208082526018908201527f496e636f727265637420434849206275726e20666c6167730000000000000000604082015260600190565b6020808252601b908201527f52657475726e20616d6f756e74206973206e6f7420656e6f7567680000000000604082015260600190565b6020808252601a908201527f4d696e2072657475726e2073686f756c64206e6f742062652030000000000000604082015260600190565b60208082526021908201527f536166654d6174683a206d756c7469706c69636174696f6e206f766572666c6f6040820152607760f81b606082015260800190565b6020808252818101527f4f776e61626c653a2063616c6c6572206973206e6f7420746865206f776e6572604082015260600190565b6020808252601f908201527f4552433230206f7065726174696f6e20646964206e6f74207375636365656400604082015260600190565b60208082526017908201527f646174612073686f756c64206265206e6f74207a65726f000000000000000000604082015260600190565b60208082526015908201527424b73b30b634b2103932bb32b93a103932b0b9b7b760591b604082015260600190565b6020808252601590820152741b1bddcb5b195d995b0818d85b1b0819985a5b1959605a1b604082015260600190565b6020808252601d908201527f416464726573733a2063616c6c20746f206e6f6e2d636f6e7472616374000000604082015260600190565b6020808252602a908201527f5361666545524332303a204552433230206f7065726174696f6e20646964206e6040820152691bdd081cdd58d8d9595960b21b606082015260800190565b918252602082015260400190565b9283526020830191909152604082015260600190565b6000808335601e19843603018112612248578283fd5b83018035915067ffffffffffffffff821115612262578283fd5b60200191503681900382131561189657600080fd5b6000808335601e1984360301811261228d578283fd5b830160208101925035905067ffffffffffffffff8111156122ad57600080fd5b80360383131561189657600080fd5b60005b838110156122d75781810151838201526020016122bf565b838111156112e15750506000910152565b6001600160a01b03811681146122fd57600080fd5b5056fea2646970667358221220e8d4eda14c075e3d3bf4a4025646a31c4c0d8a91b27a27005f720b77f7cf153a64736f6c63430007060033",
  "bytecodeSha1": "d84f36c3f572fc4d80633afb3bd1e7deefb0b50e",
  "compiler": {
    "evm_version": "istanbul",
    "optimizer": {
      "enabled": true,
      "runs": 200
    },
    "version": "0.7.6+commit.7338295f"
  },
  "contractName": "AggregationRouterV3",
  "language": "Solidity",
  "natspec": {
    "kind": "dev",
    "methods": {
      "owner()": {
        "details": "Returns the address of the current owner."
      },
      "renounceOwnership()": {
        "details": "Leaves the contract without owner. It will not be possible to call `onlyOwner` functions anymore. Can only be called by the current owner. NOTE: Renouncing ownership will leave the contract without an owner, thereby removing any functionality that is only available to the owner."
      },
      "transferOwnership(address)": {
        "details": "Transfers ownership of the contract to a new account (`newOwner`). Can only be called by the current owner."
      }
    },
    "version": 1
  },
  "opcodes": "PUSH1 0x80 PUSH1 0x40 MSTORE PUSH1 0x4 CALLDATASIZE LT PUSH2 0x8A JUMPI PUSH1 0x0 CALLDATALOAD PUSH1 0xE0 SHR DUP1 PUSH4 0x7C025200 GT PUSH2 0x59 JUMPI DUP1 PUSH4 0x7C025200 EQ PUSH2 0x13F JUMPI DUP1 PUSH4 0x83197EF0 EQ PUSH2 0x160 JUMPI DUP1 PUSH4 0x8DA5CB5B EQ PUSH2 0x175 JUMPI DUP1 PUSH4 0xA1251D75 EQ PUSH2 0x197 JUMPI DUP1 PUSH4 0xF2FDE38B EQ PUSH2 0x1AA JUMPI PUSH2 0xBA JUMP JUMPDEST DUP1 PUSH4 0x2E95B6C8 EQ PUSH2 0xBF JUMPI DUP1 PUSH4 0x6C4A483E EQ PUSH2 0xE8 JUMPI DUP1 PUSH4 0x715018A6 EQ PUSH2 0x10A JUMPI DUP1 PUSH4 0x78E3214F EQ PUSH2 0x11F JUMPI PUSH2 0xBA JUMP JUMPDEST CALLDATASIZE PUSH2 0xBA JUMPI CALLER ORIGIN EQ ISZERO PUSH2 0xB8 JUMPI PUSH1 0x40 MLOAD PUSH3 0x461BCD PUSH1 0xE5 SHL DUP2 MSTORE PUSH1 0x4 ADD PUSH2 0xAF SWAP1 PUSH2 0x1ED0 JUMP JUMPDEST PUSH1 0x40 MLOAD DUP1 SWAP2 SUB SWAP1 REVERT JUMPDEST STOP JUMPDEST PUSH1 0x0 DUP1 REVERT JUMPDEST PUSH2 0xD2 PUSH2 0xCD CALLDATASIZE PUSH1 0x4 PUSH2 0x19EF JUMP JUMPDEST PUSH2 0x1CA JUMP JUMPDEST PUSH1 0x40 MLOAD PUSH2 0xDF SWAP2 SWAP1 PUSH2 0x1C71 JUMP JUMPDEST PUSH1 0x40 MLOAD DUP1 SWAP2 SUB SWAP1 RETURN JUMPDEST PUSH2 0xFB PUSH2 0xF6 CALLDATASIZE PUSH1 0x4 PUSH2 0x1919 JUMP JUMPDEST PUSH2 0x521 JUMP JUMPDEST PUSH1 0x40 MLOAD PUSH2 0xDF SWAP4 SWAP3 SWAP2 SWAP1 PUSH2 0x221C JUMP JUMPDEST CALLVALUE DUP1 ISZERO PUSH2 0x116 JUMPI PUSH1 0x0 DUP1 REVERT JUMPDEST POP PUSH2 0xB8 PUSH2 0x80C JUMP JUMPDEST CALLVALUE DUP1 ISZERO PUSH2 0x12B JUMPI PUSH1 0x0 DUP1 REVERT JUMPDEST POP PUSH2 0xB8 PUSH2 0x13A CALLDATASIZE PUSH1 0x4 PUSH2 0x19C4 JUMP JUMPDEST PUSH2 0x895 JUMP JUMPDEST PUSH2 0x152 PUSH2 0x14D CALLDATASIZE PUSH1 0x4 PUSH2 0x1919 JUMP JUMPDEST PUSH2 0x8EC JUMP JUMPDEST PUSH1 0x40 MLOAD PUSH2 0xDF SWAP3 SWAP2 SWAP1 PUSH2 0x220E JUMP JUMPDEST CALLVALUE DUP1 ISZERO PUSH2 0x16C JUMPI PUSH1 0x0 DUP1 REVERT JUMPDEST POP PUSH2 0xB8 PUSH2 0xCD0 JUMP JUMPDEST CALLVALUE DUP1 ISZERO PUSH2 0x181 JUMPI PUSH1 0x0 DUP1 REVERT JUMPDEST POP PUSH2 0x18A PUSH2 0xD12 JUMP JUMPDEST PUSH1 0x40 MLOAD PUSH2 0xDF SWAP2 SWAP1 PUSH2 0x1C7A JUMP JUMPDEST PUSH2 0xD2 PUSH2 0x1A5 CALLDATASIZE PUSH1 0x4 PUSH2 0x1A57 JUMP JUMPDEST PUSH2 0xD21 JUMP JUMPDEST CALLVALUE DUP1 ISZERO PUSH2 0x1B6 JUMPI PUSH1 0x0 DUP1 REVERT JUMPDEST POP PUSH2 0xB8 PUSH2 0x1C5 CALLDATASIZE PUSH1 0x4 PUSH2 0x18DD JUMP JUMPDEST PUSH2 0xD48 JUMP JUMPDEST PUSH1 0x0 PUSH2 0x2A0 JUMP JUMPDEST RETURNDATASIZE PUSH1 0x0 DUP1 RETURNDATACOPY RETURNDATASIZE PUSH1 0x0 REVERT JUMPDEST PUSH3 0x461BCD PUSH1 0xE5 SHL PUSH1 0x0 MSTORE PUSH1 0x1 PUSH1 0xE5 SHL PUSH1 0x20 MSTORE DUP1 PUSH1 0x40 MSTORE DUP2 PUSH1 0x0 REVERT JUMPDEST PUSH1 0x0 PUSH4 0x240BC6B PUSH1 0xE2 SHL DUP3 MSTORE PUSH1 0x40 DUP3 PUSH1 0x4 DUP5 DUP8 GAS STATICCALL PUSH2 0x217 JUMPI PUSH2 0x217 PUSH2 0x1D1 JUMP JUMPDEST DUP2 MLOAD PUSH1 0x20 DUP4 ADD MLOAD DUP7 ISZERO PUSH2 0x226 JUMPI SWAP1 JUMPDEST PUSH4 0x22C0D9F PUSH1 0xE0 SHL DUP5 MSTORE DUP8 DUP6 MUL PUSH4 0x3B9ACA00 SWAP3 SWAP1 SWAP3 MUL DUP3 ADD SWAP2 MUL DIV SWAP1 POP DUP5 DUP1 ISZERO PUSH2 0x25C JUMPI DUP2 PUSH1 0x4 DUP5 ADD MSTORE PUSH1 0x0 PUSH1 0x24 DUP5 ADD MSTORE PUSH2 0x26A JUMP JUMPDEST PUSH1 0x0 PUSH1 0x4 DUP5 ADD MSTORE DUP2 PUSH1 0x24 DUP5 ADD MSTORE JUMPDEST POP DUP7 PUSH1 0x44 DUP4 ADD MSTORE PUSH1 0x80 PUSH1 0x64 DUP4 ADD MSTORE PUSH1 0x0 PUSH1 0x84 DUP4 ADD MSTORE PUSH1 0x0 DUP1 PUSH1 0xA4 DUP5 PUSH1 0x0 DUP9 GAS CALL PUSH2 0x296 JUMPI PUSH2 0x296 PUSH2 0x1D1 JUMP JUMPDEST SWAP7 SWAP6 POP POP POP POP POP POP JUMP JUMPDEST PUSH1 0x40 MLOAD PUSH1 0xC0 DUP2 ADD PUSH1 0x40 MSTORE PUSH1 0x4 PUSH1 0x64 CALLDATALOAD ADD DUP1 CALLDATALOAD PUSH1 0x20 DUP3 ADD SWAP2 POP DUP1 PUSH1 0x20 MUL DUP3 ADD SWAP1 POP DUP2 CALLDATALOAD DUP10 PUSH1 0x0 DUP2 EQ PUSH2 0x332 JUMPI CALLVALUE ISZERO PUSH2 0x2F1 JUMPI PUSH2 0x2F1 PUSH1 0x55 PUSH18 0x11696E76616C6964206D73672E76616C7565 PUSH1 0x58 SHL PUSH2 0x1DB JUMP JUMPDEST PUSH4 0x23B872DD PUSH1 0xE0 SHL DUP6 MSTORE CALLER PUSH1 0x4 DUP7 ADD MSTORE PUSH1 0x1 PUSH1 0x1 PUSH1 0xA0 SHL SUB DUP3 AND PUSH1 0x24 DUP7 ADD MSTORE DUP10 PUSH1 0x44 DUP7 ADD MSTORE PUSH1 0x0 DUP1 PUSH1 0x64 DUP8 PUSH1 0x0 DUP16 GAS CALL PUSH2 0x32D JUMPI PUSH2 0x32D PUSH2 0x1D1 JUMP JUMPDEST PUSH2 0x3D7 JUMP JUMPDEST CALLVALUE DUP11 EQ PUSH2 0x359 JUMPI PUSH2 0x359 PUSH1 0x55 PUSH18 0x11696E76616C6964206D73672E76616C7565 PUSH1 0x58 SHL PUSH2 0x1DB JUMP JUMPDEST PUSH4 0xD0E30DB PUSH1 0xE4 SHL DUP6 MSTORE PUSH1 0x0 DUP1 PUSH1 0x4 DUP8 DUP14 PUSH20 0xC02AAA39B223FE8D0A0E5C4F27EAD9083C756CC2 GAS CALL PUSH2 0x38D JUMPI PUSH2 0x38D PUSH2 0x1D1 JUMP JUMPDEST PUSH4 0xA9059CBB PUSH1 0xE0 SHL DUP6 MSTORE PUSH1 0x1 PUSH1 0x1 PUSH1 0xA0 SHL SUB DUP3 AND PUSH1 0x4 DUP7 ADD MSTORE DUP10 PUSH1 0x24 DUP7 ADD MSTORE PUSH1 0x0 DUP1 PUSH1 0x44 DUP8 PUSH1 0x0 PUSH20 0xC02AAA39B223FE8D0A0E5C4F27EAD9083C756CC2 GAS CALL PUSH2 0x3D7 JUMPI PUSH2 0x3D7 PUSH2 0x1D1 JUMP JUMPDEST POP DUP9 SWAP5 POP PUSH1 0x20 DUP4 ADD JUMPDEST DUP3 DUP2 LT ISZERO PUSH2 0x428 JUMPI DUP1 CALLDATALOAD PUSH2 0x41C PUSH1 0x1 PUSH1 0x1 PUSH1 0xA0 SHL SUB DUP3 AND PUSH4 0xFFFFFFFF PUSH1 0xA0 SHL DUP6 AND PUSH1 0xA0 SHR PUSH1 0x1 PUSH1 0xFF SHL DUP7 AND PUSH1 0x1 PUSH1 0x1 PUSH1 0xA0 SHL SUB DUP8 AND DUP12 DUP12 PUSH2 0x1F6 JUMP JUMPDEST SWAP7 POP SWAP2 POP PUSH1 0x20 ADD PUSH2 0x3E0 JUMP JUMPDEST POP PUSH1 0x1 PUSH1 0xFE SHL DUP2 AND DUP1 ISZERO PUSH2 0x4B7 JUMPI PUSH2 0x45F ADDRESS PUSH4 0xFFFFFFFF PUSH1 0xA0 SHL DUP5 AND PUSH1 0xA0 SHR PUSH1 0x1 PUSH1 0xFF SHL DUP6 AND PUSH1 0x1 PUSH1 0x1 PUSH1 0xA0 SHL SUB DUP7 AND DUP11 DUP11 PUSH2 0x1F6 JUMP JUMPDEST SWAP6 POP PUSH4 0x2E1A7D4D PUSH1 0xE0 SHL DUP6 MSTORE DUP6 PUSH1 0x4 DUP7 ADD MSTORE PUSH1 0x0 DUP1 PUSH1 0x24 DUP8 PUSH1 0x0 PUSH20 0xC02AAA39B223FE8D0A0E5C4F27EAD9083C756CC2 GAS CALL PUSH2 0x49C JUMPI PUSH2 0x49C PUSH2 0x1D1 JUMP JUMPDEST PUSH1 0x0 DUP1 PUSH1 0x0 DUP1 DUP10 CALLER GAS CALL PUSH2 0x4B2 JUMPI PUSH2 0x4B2 PUSH2 0x1D1 JUMP JUMPDEST PUSH2 0x4E3 JUMP JUMPDEST PUSH2 0x4E0 CALLER PUSH4 0xFFFFFFFF PUSH1 0xA0 SHL DUP5 AND PUSH1 0xA0 SHR PUSH1 0x1 PUSH1 0xFF SHL DUP6 AND PUSH1 0x1 PUSH1 0x1 PUSH1 0xA0 SHL SUB DUP7 AND DUP11 DUP11 PUSH2 0x1F6 JUMP JUMPDEST SWAP6 POP JUMPDEST POP POP POP POP POP DUP4 DUP2 LT ISZERO PUSH2 0x518 JUMPI PUSH2 0x518 PUSH1 0x5A PUSH29 0x164D696E2072657475726E206E6F742072656163686564000000000000 PUSH2 0x1DB JUMP JUMPDEST SWAP6 SWAP5 POP POP POP POP POP JUMP JUMPDEST PUSH1 0x0 DUP1 PUSH1 0x0 DUP1 GAS SWAP1 POP PUSH1 0x0 PUSH1 0xC0 DUP9 ADD CALLDATALOAD PUSH1 0x8 AND ISZERO PUSH2 0x540 JUMPI POP CALLER PUSH2 0x56C JUMP JUMPDEST PUSH1 0xC0 DUP9 ADD CALLDATALOAD PUSH1 0x10 AND ISZERO PUSH2 0x554 JUMPI POP ORIGIN PUSH2 0x56C JUMP JUMPDEST PUSH1 0x40 MLOAD PUSH3 0x461BCD PUSH1 0xE5 SHL DUP2 MSTORE PUSH1 0x4 ADD PUSH2 0xAF SWAP1 PUSH2 0x1FA6 JUMP JUMPDEST PUSH1 0x0 DUP1 ADDRESS PUSH1 0x1 PUSH1 0x1 PUSH1 0xA0 SHL SUB AND PUSH4 0x7C025200 PUSH1 0xE0 SHL DUP13 DUP13 DUP13 DUP13 PUSH1 0x40 MLOAD PUSH1 0x24 ADD PUSH2 0x598 SWAP5 SWAP4 SWAP3 SWAP2 SWAP1 PUSH2 0x1D1F JUMP JUMPDEST PUSH1 0x40 DUP1 MLOAD PUSH1 0x1F NOT DUP2 DUP5 SUB ADD DUP2 MSTORE SWAP2 DUP2 MSTORE PUSH1 0x20 DUP3 ADD DUP1 MLOAD PUSH1 0x1 PUSH1 0x1 PUSH1 0xE0 SHL SUB AND PUSH1 0x1 PUSH1 0x1 PUSH1 0xE0 SHL SUB NOT SWAP1 SWAP5 AND SWAP4 SWAP1 SWAP4 OR SWAP1 SWAP3 MSTORE SWAP1 MLOAD PUSH2 0x5D6 SWAP2 SWAP1 PUSH2 0x1B80 JUMP JUMPDEST PUSH1 0x0 PUSH1 0x40 MLOAD DUP1 DUP4 SUB DUP2 DUP6 GAS DELEGATECALL SWAP2 POP POP RETURNDATASIZE DUP1 PUSH1 0x0 DUP2 EQ PUSH2 0x611 JUMPI PUSH1 0x40 MLOAD SWAP2 POP PUSH1 0x1F NOT PUSH1 0x3F RETURNDATASIZE ADD AND DUP3 ADD PUSH1 0x40 MSTORE RETURNDATASIZE DUP3 MSTORE RETURNDATASIZE PUSH1 0x0 PUSH1 0x20 DUP5 ADD RETURNDATACOPY PUSH2 0x616 JUMP JUMPDEST PUSH1 0x60 SWAP2 POP JUMPDEST POP SWAP2 POP SWAP2 POP DUP2 ISZERO PUSH2 0x63D JUMPI DUP1 DUP1 PUSH1 0x20 ADD SWAP1 MLOAD DUP2 ADD SWAP1 PUSH2 0x635 SWAP2 SWAP1 PUSH2 0x1B02 JUMP JUMPDEST POP SWAP7 POP PUSH2 0x6D7 JUMP JUMPDEST CALLVALUE ISZERO PUSH2 0x671 JUMPI PUSH1 0x40 MLOAD CALLER SWAP1 CALLVALUE DUP1 ISZERO PUSH2 0x8FC MUL SWAP2 PUSH1 0x0 DUP2 DUP2 DUP2 DUP6 DUP9 DUP9 CALL SWAP4 POP POP POP POP ISZERO DUP1 ISZERO PUSH2 0x66F JUMPI RETURNDATASIZE PUSH1 0x0 DUP1 RETURNDATACOPY RETURNDATASIZE PUSH1 0x0 REVERT JUMPDEST POP JUMPDEST PUSH32 0x8C379A0AFCC32B1A39302F7CB8073359698411AB5FD6E3EDB2C02C0B5FBA8AA PUSH2 0x6C1 DUP3 PUSH1 0x40 MLOAD DUP1 PUSH1 0x40 ADD PUSH1 0x40 MSTORE DUP1 PUSH1 0xD DUP2 MSTORE PUSH1 0x20 ADD PUSH13 0x29BBB0B8103330B4B632B21D1 PUSH1 0x9D SHL DUP2 MSTORE POP PUSH2 0xE08 JUMP JUMPDEST PUSH1 0x40 MLOAD PUSH2 0x6CE SWAP2 SWAP1 PUSH2 0x1DF4 JUMP JUMPDEST PUSH1 0x40 MLOAD DUP1 SWAP2 SUB SWAP1 LOG1 JUMPDEST PUSH1 0x0 DUP1 DUP13 PUSH1 0x1 PUSH1 0x1 PUSH1 0xA0 SHL SUB AND PUSH4 0x1D97832E PUSH2 0x6F4 GAS DUP10 SWAP1 PUSH2 0x1021 JUMP JUMPDEST DUP15 PUSH1 0xC0 ADD CALLDATALOAD PUSH1 0x0 CALLDATASIZE SWAP1 POP PUSH1 0x40 MLOAD DUP5 PUSH4 0xFFFFFFFF AND PUSH1 0xE0 SHL DUP2 MSTORE PUSH1 0x4 ADD PUSH2 0x71C SWAP4 SWAP3 SWAP2 SWAP1 PUSH2 0x221C JUMP JUMPDEST PUSH1 0x40 DUP1 MLOAD DUP1 DUP4 SUB DUP2 DUP7 DUP1 EXTCODESIZE ISZERO DUP1 ISZERO PUSH2 0x733 JUMPI PUSH1 0x0 DUP1 REVERT JUMPDEST POP GAS STATICCALL ISZERO DUP1 ISZERO PUSH2 0x747 JUMPI RETURNDATASIZE PUSH1 0x0 DUP1 RETURNDATACOPY RETURNDATASIZE PUSH1 0x0 REVERT JUMPDEST POP POP POP POP PUSH1 0x40 MLOAD RETURNDATASIZE PUSH1 0x1F NOT PUSH1 0x1F DUP3 ADD AND DUP3 ADD DUP1 PUSH1 0x40 MSTORE POP DUP2 ADD SWAP1 PUSH2 0x76B SWAP2 SWAP1 PUSH2 0x1997 JUMP JUMPDEST SWAP1 SWAP3 POP SWAP1 POP DUP1 ISZERO PUSH2 0x7F9 JUMPI PUSH1 0x40 MLOAD PUSH4 0x79D229F PUSH1 0xE0 SHL DUP2 MSTORE PUSH1 0x1 PUSH1 0x1 PUSH1 0xA0 SHL SUB DUP4 AND SWAP1 PUSH4 0x79D229F SWAP1 PUSH2 0x7A4 SWAP1 DUP9 SWAP1 DUP6 SWAP1 PUSH1 0x4 ADD PUSH2 0x1CE2 JUMP JUMPDEST PUSH1 0x20 PUSH1 0x40 MLOAD DUP1 DUP4 SUB DUP2 PUSH1 0x0 DUP8 DUP1 EXTCODESIZE ISZERO DUP1 ISZERO PUSH2 0x7BE JUMPI PUSH1 0x0 DUP1 REVERT JUMPDEST POP GAS CALL ISZERO DUP1 ISZERO PUSH2 0x7D2 JUMPI RETURNDATASIZE PUSH1 0x0 DUP1 RETURNDATACOPY RETURNDATASIZE PUSH1 0x0 REVERT JUMPDEST POP POP POP POP PUSH1 0x40 MLOAD RETURNDATASIZE PUSH1 0x1F NOT PUSH1 0x1F DUP3 ADD AND DUP3 ADD DUP1 PUSH1 0x40 MSTORE POP DUP2 ADD SWAP1 PUSH2 0x7F6 SWAP2 SWAP1 PUSH2 0x1AEA JUMP JUMPDEST SWAP7 POP JUMPDEST GAS SWAP8 POP POP POP POP POP POP POP SWAP5 POP SWAP5 POP SWAP5 SWAP2 POP POP JUMP JUMPDEST PUSH2 0x814 PUSH2 0x1049 JUMP JUMPDEST PUSH1 0x1 PUSH1 0x1 PUSH1 0xA0 SHL SUB AND PUSH2 0x825 PUSH2 0xD12 JUMP JUMPDEST PUSH1 0x1 PUSH1 0x1 PUSH1 0xA0 SHL SUB AND EQ PUSH2 0x84B JUMPI PUSH1 0x40 MLOAD PUSH3 0x461BCD PUSH1 0xE5 SHL DUP2 MSTORE PUSH1 0x4 ADD PUSH2 0xAF SWAP1 PUSH2 0x208C JUMP JUMPDEST PUSH1 0x0 DUP1 SLOAD PUSH1 0x40 MLOAD PUSH1 0x1 PUSH1 0x1 PUSH1 0xA0 SHL SUB SWAP1 SWAP2 AND SWAP1 PUSH32 0x8BE0079C531659141344CD1FD0A4F28419497F9722A3DAAFE3B4186F6B6457E0 SWAP1 DUP4 SWAP1 LOG3 PUSH1 0x0 DUP1 SLOAD PUSH1 0x1 PUSH1 0x1 PUSH1 0xA0 SHL SUB NOT AND SWAP1 SSTORE JUMP JUMPDEST PUSH2 0x89D PUSH2 0x1049 JUMP JUMPDEST PUSH1 0x1 PUSH1 0x1 PUSH1 0xA0 SHL SUB AND PUSH2 0x8AE PUSH2 0xD12 JUMP JUMPDEST PUSH1 0x1 PUSH1 0x1 PUSH1 0xA0 SHL SUB AND EQ PUSH2 0x8D4 JUMPI PUSH1 0x40 MLOAD PUSH3 0x461BCD PUSH1 0xE5 SHL DUP2 MSTORE PUSH1 0x4 ADD PUSH2 0xAF SWAP1 PUSH2 0x208C JUMP JUMPDEST PUSH2 0x8E8 PUSH1 0x1 PUSH1 0x1 PUSH1 0xA0 SHL SUB DUP4 AND CALLER DUP4 PUSH2 0x104D JUMP JUMPDEST POP POP JUMP JUMPDEST PUSH1 0x0 DUP1 PUSH1 0x0 DUP6 PUSH1 0xA0 ADD CALLDATALOAD GT PUSH2 0x913 JUMPI PUSH1 0x40 MLOAD PUSH3 0x461BCD PUSH1 0xE5 SHL DUP2 MSTORE PUSH1 0x4 ADD PUSH2 0xAF SWAP1 PUSH2 0x2014 JUMP JUMPDEST DUP3 PUSH2 0x930 JUMPI PUSH1 0x40 MLOAD PUSH3 0x461BCD PUSH1 0xE5 SHL DUP2 MSTORE PUSH1 0x4 ADD PUSH2 0xAF SWAP1 PUSH2 0x20F8 JUMP JUMPDEST PUSH1 0xC0 DUP6 ADD CALLDATALOAD PUSH1 0x0 PUSH2 0x944 PUSH1 0x20 DUP9 ADD DUP9 PUSH2 0x18DD JUMP JUMPDEST SWAP1 POP PUSH1 0x0 PUSH2 0x958 PUSH1 0x40 DUP10 ADD PUSH1 0x20 DUP11 ADD PUSH2 0x18DD JUMP JUMPDEST SWAP1 POP PUSH1 0x2 DUP4 AND ISZERO PUSH2 0x9A9 JUMPI PUSH2 0x975 DUP3 PUSH1 0x1 PUSH1 0x1 PUSH1 0xA0 SHL SUB AND PUSH2 0x10F8 JUMP JUMPDEST PUSH2 0x980 JUMPI PUSH1 0x0 PUSH2 0x986 JUMP JUMPDEST DUP8 PUSH1 0x80 ADD CALLDATALOAD JUMPDEST CALLVALUE GT PUSH2 0x9A4 JUMPI PUSH1 0x40 MLOAD PUSH3 0x461BCD PUSH1 0xE5 SHL DUP2 MSTORE PUSH1 0x4 ADD PUSH2 0xAF SWAP1 PUSH2 0x1EFE JUMP JUMPDEST PUSH2 0x9EA JUMP JUMPDEST PUSH2 0x9BB DUP3 PUSH1 0x1 PUSH1 0x1 PUSH1 0xA0 SHL SUB AND PUSH2 0x10F8 JUMP JUMPDEST PUSH2 0x9C6 JUMPI PUSH1 0x0 PUSH2 0x9CC JUMP JUMPDEST DUP8 PUSH1 0x80 ADD CALLDATALOAD JUMPDEST CALLVALUE EQ PUSH2 0x9EA JUMPI PUSH1 0x40 MLOAD PUSH3 0x461BCD PUSH1 0xE5 SHL DUP2 MSTORE PUSH1 0x4 ADD PUSH2 0xAF SWAP1 PUSH2 0x1EFE JUMP JUMPDEST PUSH1 0x4 DUP4 AND ISZERO PUSH2 0xA67 JUMPI PUSH2 0xA05 DUP3 PUSH1 0x1 PUSH1 0x1 PUSH1 0xA0 SHL SUB AND PUSH2 0x10F8 JUMP JUMPDEST ISZERO PUSH2 0xA22 JUMPI PUSH1 0x40 MLOAD PUSH3 0x461BCD PUSH1 0xE5 SHL DUP2 MSTORE PUSH1 0x4 ADD PUSH2 0xAF SWAP1 PUSH2 0x1E27 JUMP JUMPDEST PUSH2 0xA3D DUP3 PUSH1 0x80 DUP11 ADD CALLDATALOAD PUSH2 0xA38 PUSH1 0xE0 DUP13 ADD DUP13 PUSH2 0x2232 JUMP JUMPDEST PUSH2 0x1134 JUMP JUMPDEST PUSH2 0xA67 CALLER PUSH2 0xA51 PUSH1 0x60 DUP12 ADD PUSH1 0x40 DUP13 ADD PUSH2 0x18DD JUMP JUMPDEST PUSH1 0x1 PUSH1 0x1 PUSH1 0xA0 SHL SUB DUP6 AND SWAP2 SWAP1 PUSH1 0x80 DUP13 ADD CALLDATALOAD PUSH2 0x12E7 JUMP JUMPDEST PUSH1 0x0 DUP1 PUSH2 0xA7A PUSH1 0x80 DUP12 ADD PUSH1 0x60 DUP13 ADD PUSH2 0x18DD JUMP JUMPDEST PUSH1 0x1 PUSH1 0x1 PUSH1 0xA0 SHL SUB AND EQ PUSH2 0xA9D JUMPI PUSH2 0xA98 PUSH1 0x80 DUP11 ADD PUSH1 0x60 DUP12 ADD PUSH2 0x18DD JUMP JUMPDEST PUSH2 0xA9F JUMP JUMPDEST CALLER JUMPDEST SWAP1 POP PUSH1 0x0 PUSH1 0x1 DUP6 AND PUSH2 0xAB2 JUMPI PUSH1 0x0 PUSH2 0xAC5 JUMP JUMPDEST PUSH2 0xAC5 PUSH1 0x1 PUSH1 0x1 PUSH1 0xA0 SHL SUB DUP6 AND CALLER PUSH2 0x133F JUMP JUMPDEST SWAP1 POP PUSH1 0x0 PUSH2 0xADC PUSH1 0x1 PUSH1 0x1 PUSH1 0xA0 SHL SUB DUP6 AND DUP5 PUSH2 0x133F JUMP JUMPDEST SWAP1 POP PUSH1 0x0 DUP1 DUP14 PUSH1 0x1 PUSH1 0x1 PUSH1 0xA0 SHL SUB AND CALLVALUE PUSH4 0xD9C45357 PUSH1 0xE0 SHL DUP15 DUP15 PUSH1 0x40 MLOAD PUSH1 0x20 ADD PUSH2 0xB08 SWAP4 SWAP3 SWAP2 SWAP1 PUSH2 0x1B5C JUMP JUMPDEST PUSH1 0x40 DUP1 MLOAD PUSH1 0x1F NOT DUP2 DUP5 SUB ADD DUP2 MSTORE SWAP1 DUP3 SWAP1 MSTORE PUSH2 0xB22 SWAP2 PUSH2 0x1B80 JUMP JUMPDEST PUSH1 0x0 PUSH1 0x40 MLOAD DUP1 DUP4 SUB DUP2 DUP6 DUP8 GAS CALL SWAP3 POP POP POP RETURNDATASIZE DUP1 PUSH1 0x0 DUP2 EQ PUSH2 0xB5F JUMPI PUSH1 0x40 MLOAD SWAP2 POP PUSH1 0x1F NOT PUSH1 0x3F RETURNDATASIZE ADD AND DUP3 ADD PUSH1 0x40 MSTORE RETURNDATASIZE DUP3 MSTORE RETURNDATASIZE PUSH1 0x0 PUSH1 0x20 DUP5 ADD RETURNDATACOPY PUSH2 0xB64 JUMP JUMPDEST PUSH1 0x60 SWAP2 POP JUMPDEST POP SWAP2 POP SWAP2 POP DUP2 PUSH2 0xBBB JUMPI PUSH2 0xBA2 DUP2 PUSH1 0x40 MLOAD DUP1 PUSH1 0x40 ADD PUSH1 0x40 MSTORE DUP1 PUSH1 0x12 DUP2 MSTORE PUSH1 0x20 ADD PUSH18 0x31B0B636213CBA32B9903330B4B632B21D1 PUSH1 0x75 SHL DUP2 MSTORE POP PUSH2 0xE08 JUMP JUMPDEST PUSH1 0x40 MLOAD PUSH3 0x461BCD PUSH1 0xE5 SHL DUP2 MSTORE PUSH1 0x4 ADD PUSH2 0xAF SWAP2 SWAP1 PUSH2 0x1DF4 JUMP JUMPDEST POP POP PUSH1 0x80 DUP12 ADD CALLDATALOAD PUSH2 0xBDF DUP3 PUSH2 0xBD9 PUSH1 0x1 PUSH1 0x1 PUSH1 0xA0 SHL SUB DUP9 AND DUP8 PUSH2 0x133F JUMP JUMPDEST SWAP1 PUSH2 0x1021 JUMP JUMPDEST SWAP9 POP PUSH1 0x1 DUP8 AND ISZERO PUSH2 0xC58 JUMPI PUSH2 0xC17 PUSH2 0xC00 PUSH1 0x1 PUSH1 0x1 PUSH1 0xA0 SHL SUB DUP9 AND CALLER PUSH2 0x133F JUMP JUMPDEST PUSH2 0xBD9 DUP15 PUSH1 0x80 ADD CALLDATALOAD DUP7 PUSH2 0x13E3 SWAP1 SWAP2 SWAP1 PUSH4 0xFFFFFFFF AND JUMP JUMPDEST SWAP1 POP PUSH2 0xC27 PUSH1 0xA0 DUP14 ADD CALLDATALOAD DUP3 PUSH2 0x140F JUMP JUMPDEST PUSH2 0xC35 DUP11 PUSH1 0x80 DUP16 ADD CALLDATALOAD PUSH2 0x140F JUMP JUMPDEST LT ISZERO PUSH2 0xC53 JUMPI PUSH1 0x40 MLOAD PUSH3 0x461BCD PUSH1 0xE5 SHL DUP2 MSTORE PUSH1 0x4 ADD PUSH2 0xAF SWAP1 PUSH2 0x1FDD JUMP JUMPDEST PUSH2 0xC7C JUMP JUMPDEST DUP12 PUSH1 0xA0 ADD CALLDATALOAD DUP10 LT ISZERO PUSH2 0xC7C JUMPI PUSH1 0x40 MLOAD PUSH3 0x461BCD PUSH1 0xE5 SHL DUP2 MSTORE PUSH1 0x4 ADD PUSH2 0xAF SWAP1 PUSH2 0x1FDD JUMP JUMPDEST PUSH32 0xD6D4F5681C246C9F42C203E287975AF1601F8DF8035A9251F79AAB5C8F09E2F8 CALLER DUP8 DUP8 DUP8 DUP6 DUP15 PUSH1 0x40 MLOAD PUSH2 0xCB5 SWAP7 SWAP6 SWAP5 SWAP4 SWAP3 SWAP2 SWAP1 PUSH2 0x1CA8 JUMP JUMPDEST PUSH1 0x40 MLOAD DUP1 SWAP2 SUB SWAP1 LOG1 GAS SWAP8 POP POP POP POP POP POP POP POP SWAP5 POP SWAP5 SWAP3 POP POP POP JUMP JUMPDEST PUSH2 0xCD8 PUSH2 0x1049 JUMP JUMPDEST PUSH1 0x1 PUSH1 0x1 PUSH1 0xA0 SHL SUB AND PUSH2 0xCE9 PUSH2 0xD12 JUMP JUMPDEST PUSH1 0x1 PUSH1 0x1 PUSH1 0xA0 SHL SUB AND EQ PUSH2 0xD0F JUMPI PUSH1 0x40 MLOAD PUSH3 0x461BCD PUSH1 0xE5 SHL DUP2 MSTORE PUSH1 0x4 ADD PUSH2 0xAF SWAP1 PUSH2 0x208C JUMP JUMPDEST CALLER SELFDESTRUCT JUMPDEST PUSH1 0x0 SLOAD PUSH1 0x1 PUSH1 0x1 PUSH1 0xA0 SHL SUB AND SWAP1 JUMP JUMPDEST PUSH1 0x0 PUSH2 0xD2F DUP9 DUP9 DUP6 DUP6 PUSH2 0x1134 JUMP JUMPDEST PUSH2 0xD3C DUP9 DUP9 DUP9 DUP9 DUP9 PUSH2 0x1CA JUMP JUMPDEST SWAP9 SWAP8 POP POP POP POP POP POP POP POP JUMP JUMPDEST PUSH2 0xD50 PUSH2 0x1049 JUMP JUMPDEST PUSH1 0x1 PUSH1 0x1 PUSH1 0xA0 SHL SUB AND PUSH2 0xD61 PUSH2 0xD12 JUMP JUMPDEST PUSH1 0x1 PUSH1 0x1 PUSH1 0xA0 SHL SUB AND EQ PUSH2 0xD87 JUMPI PUSH1 0x40 MLOAD PUSH3 0x461BCD PUSH1 0xE5 SHL DUP2 MSTORE PUSH1 0x4 ADD PUSH2 0xAF SWAP1 PUSH2 0x208C JUMP JUMPDEST PUSH1 0x1 PUSH1 0x1 PUSH1 0xA0 SHL SUB DUP2 AND PUSH2 0xDAD JUMPI PUSH1 0x40 MLOAD PUSH3 0x461BCD PUSH1 0xE5 SHL DUP2 MSTORE PUSH1 0x4 ADD PUSH2 0xAF SWAP1 PUSH2 0x1E53 JUMP JUMPDEST PUSH1 0x0 DUP1 SLOAD PUSH1 0x40 MLOAD PUSH1 0x1 PUSH1 0x1 PUSH1 0xA0 SHL SUB DUP1 DUP6 AND SWAP4 SWAP3 AND SWAP2 PUSH32 0x8BE0079C531659141344CD1FD0A4F28419497F9722A3DAAFE3B4186F6B6457E0 SWAP2 LOG3 PUSH1 0x0 DUP1 SLOAD PUSH1 0x1 PUSH1 0x1 PUSH1 0xA0 SHL SUB NOT AND PUSH1 0x1 PUSH1 0x1 PUSH1 0xA0 SHL SUB SWAP3 SWAP1 SWAP3 AND SWAP2 SWAP1 SWAP2 OR SWAP1 SSTORE JUMP JUMPDEST PUSH1 0x60 PUSH1 0x44 DUP4 MLOAD LT ISZERO DUP1 ISZERO PUSH2 0xE3B JUMPI POP DUP3 PUSH1 0x0 DUP2 MLOAD DUP2 LT PUSH2 0xE24 JUMPI INVALID JUMPDEST PUSH1 0x20 SWAP2 ADD ADD MLOAD PUSH1 0x1 PUSH1 0x1 PUSH1 0xF8 SHL SUB NOT AND PUSH1 0x1 PUSH1 0xFB SHL EQ JUMPDEST DUP1 ISZERO PUSH2 0xE66 JUMPI POP DUP3 PUSH1 0x1 DUP2 MLOAD DUP2 LT PUSH2 0xE4F JUMPI INVALID JUMPDEST PUSH1 0x20 SWAP2 ADD ADD MLOAD PUSH1 0x1 PUSH1 0x1 PUSH1 0xF8 SHL SUB NOT AND PUSH1 0xC3 PUSH1 0xF8 SHL EQ JUMPDEST DUP1 ISZERO PUSH2 0xE91 JUMPI POP DUP3 PUSH1 0x2 DUP2 MLOAD DUP2 LT PUSH2 0xE7A JUMPI INVALID JUMPDEST PUSH1 0x20 SWAP2 ADD ADD MLOAD PUSH1 0x1 PUSH1 0x1 PUSH1 0xF8 SHL SUB NOT AND PUSH1 0x79 PUSH1 0xF8 SHL EQ JUMPDEST DUP1 ISZERO PUSH2 0xEBC JUMPI POP DUP3 PUSH1 0x3 DUP2 MLOAD DUP2 LT PUSH2 0xEA5 JUMPI INVALID JUMPDEST PUSH1 0x20 SWAP2 ADD ADD MLOAD PUSH1 0x1 PUSH1 0x1 PUSH1 0xF8 SHL SUB NOT AND PUSH1 0x5 PUSH1 0xFD SHL EQ JUMPDEST ISZERO PUSH2 0xF18 JUMPI PUSH1 0x60 PUSH1 0x44 DUP5 ADD SWAP1 POP DUP1 MLOAD PUSH1 0x44 ADD DUP5 MLOAD LT ISZERO PUSH2 0xEEE JUMPI PUSH1 0x40 MLOAD PUSH3 0x461BCD PUSH1 0xE5 SHL DUP2 MSTORE PUSH1 0x4 ADD PUSH2 0xAF SWAP1 PUSH2 0x212F JUMP JUMPDEST DUP3 DUP2 PUSH1 0x40 MLOAD PUSH1 0x20 ADD PUSH2 0xF01 SWAP3 SWAP2 SWAP1 PUSH2 0x1C3C JUMP JUMPDEST PUSH1 0x40 MLOAD PUSH1 0x20 DUP2 DUP4 SUB SUB DUP2 MSTORE SWAP1 PUSH1 0x40 MSTORE SWAP2 POP POP PUSH2 0x101B JUMP JUMPDEST DUP3 MLOAD PUSH1 0x24 EQ DUP1 ISZERO PUSH2 0xF48 JUMPI POP DUP3 PUSH1 0x0 DUP2 MLOAD DUP2 LT PUSH2 0xF31 JUMPI INVALID JUMPDEST PUSH1 0x20 SWAP2 ADD ADD MLOAD PUSH1 0x1 PUSH1 0x1 PUSH1 0xF8 SHL SUB NOT AND PUSH1 0x27 PUSH1 0xF9 SHL EQ JUMPDEST DUP1 ISZERO PUSH2 0xF73 JUMPI POP DUP3 PUSH1 0x1 DUP2 MLOAD DUP2 LT PUSH2 0xF5C JUMPI INVALID JUMPDEST PUSH1 0x20 SWAP2 ADD ADD MLOAD PUSH1 0x1 PUSH1 0x1 PUSH1 0xF8 SHL SUB NOT AND PUSH1 0x9 PUSH1 0xFB SHL EQ JUMPDEST DUP1 ISZERO PUSH2 0xF9E JUMPI POP DUP3 PUSH1 0x2 DUP2 MLOAD DUP2 LT PUSH2 0xF87 JUMPI INVALID JUMPDEST PUSH1 0x20 SWAP2 ADD ADD MLOAD PUSH1 0x1 PUSH1 0x1 PUSH1 0xF8 SHL SUB NOT AND PUSH1 0x7B PUSH1 0xF8 SHL EQ JUMPDEST DUP1 ISZERO PUSH2 0xFC9 JUMPI POP DUP3 PUSH1 0x3 DUP2 MLOAD DUP2 LT PUSH2 0xFB2 JUMPI INVALID JUMPDEST PUSH1 0x20 SWAP2 ADD ADD MLOAD PUSH1 0x1 PUSH1 0x1 PUSH1 0xF8 SHL SUB NOT AND PUSH1 0x71 PUSH1 0xF8 SHL EQ JUMPDEST ISZERO PUSH2 0xFEE JUMPI PUSH1 0x24 DUP4 ADD MLOAD DUP3 PUSH2 0xFDD DUP3 PUSH2 0x1449 JUMP JUMPDEST PUSH1 0x40 MLOAD PUSH1 0x20 ADD PUSH2 0xF01 SWAP3 SWAP2 SWAP1 PUSH2 0x1B9C JUMP JUMPDEST DUP2 PUSH2 0xFF8 DUP5 PUSH2 0x146F JUMP JUMPDEST PUSH1 0x40 MLOAD PUSH1 0x20 ADD PUSH2 0x1009 SWAP3 SWAP2 SWAP1 PUSH2 0x1BEB JUMP JUMPDEST PUSH1 0x40 MLOAD PUSH1 0x20 DUP2 DUP4 SUB SUB DUP2 MSTORE SWAP1 PUSH1 0x40 MSTORE SWAP1 POP JUMPDEST SWAP3 SWAP2 POP POP JUMP JUMPDEST PUSH1 0x0 DUP3 DUP3 GT ISZERO PUSH2 0x1043 JUMPI PUSH1 0x40 MLOAD PUSH3 0x461BCD PUSH1 0xE5 SHL DUP2 MSTORE PUSH1 0x4 ADD PUSH2 0xAF SWAP1 PUSH2 0x1F29 JUMP JUMPDEST POP SWAP1 SUB SWAP1 JUMP JUMPDEST CALLER SWAP1 JUMP JUMPDEST DUP1 ISZERO PUSH2 0x10F3 JUMPI PUSH2 0x105C DUP4 PUSH2 0x10F8 JUMP JUMPDEST ISZERO PUSH2 0x109D JUMPI PUSH1 0x40 MLOAD PUSH1 0x1 PUSH1 0x1 PUSH1 0xA0 SHL SUB DUP4 AND SWAP1 DUP3 ISZERO PUSH2 0x8FC MUL SWAP1 DUP4 SWAP1 PUSH1 0x0 DUP2 DUP2 DUP2 DUP6 DUP9 DUP9 CALL SWAP4 POP POP POP POP ISZERO DUP1 ISZERO PUSH2 0x1097 JUMPI RETURNDATASIZE PUSH1 0x0 DUP1 RETURNDATACOPY RETURNDATASIZE PUSH1 0x0 REVERT JUMPDEST POP PUSH2 0x10F3 JUMP JUMPDEST PUSH2 0x10F3 DUP4 PUSH4 0xA9059CBB PUSH1 0xE0 SHL DUP5 DUP5 PUSH1 0x40 MLOAD PUSH1 0x24 ADD PUSH2 0x10BC SWAP3 SWAP2 SWAP1 PUSH2 0x1CE2 JUMP JUMPDEST PUSH1 0x40 DUP1 MLOAD PUSH1 0x1F NOT DUP2 DUP5 SUB ADD DUP2 MSTORE SWAP2 SWAP1 MSTORE PUSH1 0x20 DUP2 ADD DUP1 MLOAD PUSH1 0x1 PUSH1 0x1 PUSH1 0xE0 SHL SUB AND PUSH1 0x1 PUSH1 0x1 PUSH1 0xE0 SHL SUB NOT SWAP1 SWAP4 AND SWAP3 SWAP1 SWAP3 OR SWAP1 SWAP2 MSTORE PUSH2 0x15EE JUMP JUMPDEST POP POP POP JUMP JUMPDEST PUSH1 0x0 PUSH1 0x1 PUSH1 0x1 PUSH1 0xA0 SHL SUB DUP3 AND ISZERO DUP1 PUSH2 0x112C JUMPI POP PUSH1 0x1 PUSH1 0x1 PUSH1 0xA0 SHL SUB DUP3 AND PUSH20 0xEEEEEEEEEEEEEEEEEEEEEEEEEEEEEEEEEEEEEEEE EQ JUMPDEST SWAP1 POP JUMPDEST SWAP2 SWAP1 POP JUMP JUMPDEST PUSH1 0xE0 DUP2 EQ ISZERO PUSH2 0x12E1 JUMPI PUSH1 0x0 DUP1 DUP6 PUSH1 0x1 PUSH1 0x1 PUSH1 0xA0 SHL SUB AND PUSH4 0xD505ACCF PUSH1 0xE0 SHL DUP6 DUP6 PUSH1 0x40 MLOAD PUSH1 0x20 ADD PUSH2 0x1166 SWAP4 SWAP3 SWAP2 SWAP1 PUSH2 0x1B5C JUMP JUMPDEST PUSH1 0x40 DUP1 MLOAD PUSH1 0x1F NOT DUP2 DUP5 SUB ADD DUP2 MSTORE SWAP1 DUP3 SWAP1 MSTORE PUSH2 0x1180 SWAP2 PUSH2 0x1B80 JUMP JUMPDEST PUSH1 0x0 PUSH1 0x40 MLOAD DUP1 DUP4 SUB DUP2 PUSH1 0x0 DUP7 GAS CALL SWAP2 POP POP RETURNDATASIZE DUP1 PUSH1 0x0 DUP2 EQ PUSH2 0x11BD JUMPI PUSH1 0x40 MLOAD SWAP2 POP PUSH1 0x1F NOT PUSH1 0x3F RETURNDATASIZE ADD AND DUP3 ADD PUSH1 0x40 MSTORE RETURNDATASIZE DUP3 MSTORE RETURNDATASIZE PUSH1 0x0 PUSH1 0x20 DUP5 ADD RETURNDATACOPY PUSH2 0x11C2 JUMP JUMPDEST PUSH1 0x60 SWAP2 POP JUMPDEST POP SWAP2 POP SWAP2 POP DUP2 PUSH2 0x12DE JUMPI PUSH1 0x0 PUSH2 0x1204 DUP3 PUSH1 0x40 MLOAD DUP1 PUSH1 0x40 ADD PUSH1 0x40 MSTORE DUP1 PUSH1 0x14 DUP2 MSTORE PUSH1 0x20 ADD PUSH20 0x2832B936B4BA1031B0B636103330B4B632B21D1 PUSH1 0x65 SHL DUP2 MSTORE POP PUSH2 0xE08 JUMP JUMPDEST SWAP1 POP DUP6 DUP8 PUSH1 0x1 PUSH1 0x1 PUSH1 0xA0 SHL SUB AND PUSH4 0xDD62ED3E CALLER ADDRESS PUSH1 0x40 MLOAD DUP4 PUSH4 0xFFFFFFFF AND PUSH1 0xE0 SHL DUP2 MSTORE PUSH1 0x4 ADD PUSH2 0x1235 SWAP3 SWAP2 SWAP1 PUSH2 0x1C8E JUMP JUMPDEST PUSH1 0x20 PUSH1 0x40 MLOAD DUP1 DUP4 SUB DUP2 DUP7 DUP1 EXTCODESIZE ISZERO DUP1 ISZERO PUSH2 0x124D JUMPI PUSH1 0x0 DUP1 REVERT JUMPDEST POP GAS STATICCALL ISZERO DUP1 ISZERO PUSH2 0x1261 JUMPI RETURNDATASIZE PUSH1 0x0 DUP1 RETURNDATACOPY RETURNDATASIZE PUSH1 0x0 REVERT JUMPDEST POP POP POP POP PUSH1 0x40 MLOAD RETURNDATASIZE PUSH1 0x1F NOT PUSH1 0x1F DUP3 ADD AND DUP3 ADD DUP1 PUSH1 0x40 MSTORE POP DUP2 ADD SWAP1 PUSH2 0x1285 SWAP2 SWAP1 PUSH2 0x1AEA JUMP JUMPDEST LT ISZERO PUSH2 0x12A5 JUMPI DUP1 PUSH1 0x40 MLOAD PUSH3 0x461BCD PUSH1 0xE5 SHL DUP2 MSTORE PUSH1 0x4 ADD PUSH2 0xAF SWAP2 SWAP1 PUSH2 0x1DF4 JUMP JUMPDEST PUSH32 0x8C379A0AFCC32B1A39302F7CB8073359698411AB5FD6E3EDB2C02C0B5FBA8AA DUP2 PUSH1 0x40 MLOAD PUSH2 0x12D4 SWAP2 SWAP1 PUSH2 0x1DF4 JUMP JUMPDEST PUSH1 0x40 MLOAD DUP1 SWAP2 SUB SWAP1 LOG1 POP JUMPDEST POP POP JUMPDEST POP POP POP POP JUMP JUMPDEST PUSH2 0x12E1 DUP5 PUSH4 0x23B872DD PUSH1 0xE0 SHL DUP6 DUP6 DUP6 PUSH1 0x40 MLOAD PUSH1 0x24 ADD PUSH2 0x1308 SWAP4 SWAP3 SWAP2 SWAP1 PUSH2 0x1CFB JUMP JUMPDEST PUSH1 0x40 DUP1 MLOAD PUSH1 0x1F NOT DUP2 DUP5 SUB ADD DUP2 MSTORE SWAP2 SWAP1 MSTORE PUSH1 0x20 DUP2 ADD DUP1 MLOAD PUSH1 0x1 PUSH1 0x1 PUSH1 0xE0 SHL SUB AND PUSH1 0x1 PUSH1 0x1 PUSH1 0xE0 SHL SUB NOT SWAP1 SWAP4 AND SWAP3 SWAP1 SWAP3 OR SWAP1 SWAP2 MSTORE PUSH2 0x16A4 JUMP JUMPDEST PUSH1 0x0 PUSH2 0x134A DUP4 PUSH2 0x10F8 JUMP JUMPDEST ISZERO PUSH2 0x1360 JUMPI POP PUSH1 0x1 PUSH1 0x1 PUSH1 0xA0 SHL SUB DUP2 AND BALANCE PUSH2 0x101B JUMP JUMPDEST PUSH1 0x40 MLOAD PUSH4 0x70A08231 PUSH1 0xE0 SHL DUP2 MSTORE PUSH1 0x1 PUSH1 0x1 PUSH1 0xA0 SHL SUB DUP5 AND SWAP1 PUSH4 0x70A08231 SWAP1 PUSH2 0x138C SWAP1 DUP6 SWAP1 PUSH1 0x4 ADD PUSH2 0x1C7A JUMP JUMPDEST PUSH1 0x20 PUSH1 0x40 MLOAD DUP1 DUP4 SUB DUP2 DUP7 DUP1 EXTCODESIZE ISZERO DUP1 ISZERO PUSH2 0x13A4 JUMPI PUSH1 0x0 DUP1 REVERT JUMPDEST POP GAS STATICCALL ISZERO DUP1 ISZERO PUSH2 0x13B8 JUMPI RETURNDATASIZE PUSH1 0x0 DUP1 RETURNDATACOPY RETURNDATASIZE PUSH1 0x0 REVERT JUMPDEST POP POP POP POP PUSH1 0x40 MLOAD RETURNDATASIZE PUSH1 0x1F NOT PUSH1 0x1F DUP3 ADD AND DUP3 ADD DUP1 PUSH1 0x40 MSTORE POP DUP2 ADD SWAP1 PUSH2 0x13DC SWAP2 SWAP1 PUSH2 0x1AEA JUMP JUMPDEST SWAP1 POP PUSH2 0x101B JUMP JUMPDEST PUSH1 0x0 DUP3 DUP3 ADD DUP4 DUP2 LT ISZERO PUSH2 0x1408 JUMPI PUSH1 0x40 MLOAD PUSH3 0x461BCD PUSH1 0xE5 SHL DUP2 MSTORE PUSH1 0x4 ADD PUSH2 0xAF SWAP1 PUSH2 0x1E99 JUMP JUMPDEST SWAP4 SWAP3 POP POP POP JUMP JUMPDEST PUSH1 0x0 DUP3 PUSH2 0x141E JUMPI POP PUSH1 0x0 PUSH2 0x101B JUMP JUMPDEST DUP3 DUP3 MUL DUP3 DUP5 DUP3 DUP2 PUSH2 0x142B JUMPI INVALID JUMPDEST DIV EQ PUSH2 0x1408 JUMPI PUSH1 0x40 MLOAD PUSH3 0x461BCD PUSH1 0xE5 SHL DUP2 MSTORE PUSH1 0x4 ADD PUSH2 0xAF SWAP1 PUSH2 0x204B JUMP JUMPDEST PUSH1 0x60 PUSH2 0x112C DUP3 PUSH1 0x40 MLOAD PUSH1 0x20 ADD PUSH2 0x145F SWAP2 SWAP1 PUSH2 0x1C71 JUMP JUMPDEST PUSH1 0x40 MLOAD PUSH1 0x20 DUP2 DUP4 SUB SUB DUP2 MSTORE SWAP1 PUSH1 0x40 MSTORE JUMPDEST DUP1 MLOAD PUSH1 0x60 SWAP1 PUSH16 0x181899199A1A9B1B9C1CB0B131B232B3 PUSH1 0x81 SHL SWAP1 PUSH1 0x0 SWAP1 PUSH1 0x2 SWAP1 DUP2 MUL ADD PUSH8 0xFFFFFFFFFFFFFFFF DUP2 GT DUP1 ISZERO PUSH2 0x14A8 JUMPI PUSH1 0x0 DUP1 REVERT JUMPDEST POP PUSH1 0x40 MLOAD SWAP1 DUP1 DUP3 MSTORE DUP1 PUSH1 0x1F ADD PUSH1 0x1F NOT AND PUSH1 0x20 ADD DUP3 ADD PUSH1 0x40 MSTORE DUP1 ISZERO PUSH2 0x14D3 JUMPI PUSH1 0x20 DUP3 ADD DUP2 DUP1 CALLDATASIZE DUP4 CALLDATACOPY ADD SWAP1 POP JUMPDEST POP SWAP1 POP PUSH1 0x3 PUSH1 0xFC SHL DUP2 PUSH1 0x0 DUP2 MLOAD DUP2 LT PUSH2 0x14E8 JUMPI INVALID JUMPDEST PUSH1 0x20 ADD ADD SWAP1 PUSH1 0x1 PUSH1 0x1 PUSH1 0xF8 SHL SUB NOT AND SWAP1 DUP2 PUSH1 0x0 BYTE SWAP1 MSTORE8 POP PUSH1 0xF PUSH1 0xFB SHL DUP2 PUSH1 0x1 DUP2 MLOAD DUP2 LT PUSH2 0x1511 JUMPI INVALID JUMPDEST PUSH1 0x20 ADD ADD SWAP1 PUSH1 0x1 PUSH1 0x1 PUSH1 0xF8 SHL SUB NOT AND SWAP1 DUP2 PUSH1 0x0 BYTE SWAP1 MSTORE8 POP PUSH1 0x0 JUMPDEST DUP5 MLOAD DUP2 LT ISZERO PUSH2 0x15E6 JUMPI DUP3 PUSH1 0x4 DUP7 DUP4 DUP2 MLOAD DUP2 LT PUSH2 0x1543 JUMPI INVALID JUMPDEST ADD PUSH1 0x20 ADD MLOAD PUSH1 0x1 PUSH1 0x1 PUSH1 0xF8 SHL SUB NOT AND SWAP1 SHR PUSH1 0xF8 SHR PUSH1 0x10 DUP2 LT PUSH2 0x1561 JUMPI INVALID JUMPDEST BYTE PUSH1 0xF8 SHL DUP3 DUP3 PUSH1 0x2 MUL PUSH1 0x2 ADD DUP2 MLOAD DUP2 LT PUSH2 0x1577 JUMPI INVALID JUMPDEST PUSH1 0x20 ADD ADD SWAP1 PUSH1 0x1 PUSH1 0x1 PUSH1 0xF8 SHL SUB NOT AND SWAP1 DUP2 PUSH1 0x0 BYTE SWAP1 MSTORE8 POP DUP3 DUP6 DUP3 DUP2 MLOAD DUP2 LT PUSH2 0x159B JUMPI INVALID JUMPDEST PUSH1 0x20 SWAP2 ADD ADD MLOAD PUSH1 0xF8 SHR PUSH1 0xF AND PUSH1 0x10 DUP2 LT PUSH2 0x15B1 JUMPI INVALID JUMPDEST BYTE PUSH1 0xF8 SHL DUP3 DUP3 PUSH1 0x2 MUL PUSH1 0x3 ADD DUP2 MLOAD DUP2 LT PUSH2 0x15C7 JUMPI INVALID JUMPDEST PUSH1 0x20 ADD ADD SWAP1 PUSH1 0x1 PUSH1 0x1 PUSH1 0xF8 SHL SUB NOT AND SWAP1 DUP2 PUSH1 0x0 BYTE SWAP1 MSTORE8 POP PUSH1 0x1 ADD PUSH2 0x152B JUMP JUMPDEST POP SWAP4 SWAP3 POP POP POP JUMP JUMPDEST PUSH1 0x0 DUP1 DUP4 PUSH1 0x1 PUSH1 0x1 PUSH1 0xA0 SHL SUB AND DUP4 PUSH1 0x40 MLOAD PUSH2 0x1609 SWAP2 SWAP1 PUSH2 0x1B80 JUMP JUMPDEST PUSH1 0x0 PUSH1 0x40 MLOAD DUP1 DUP4 SUB DUP2 PUSH1 0x0 DUP7 GAS CALL SWAP2 POP POP RETURNDATASIZE DUP1 PUSH1 0x0 DUP2 EQ PUSH2 0x1646 JUMPI PUSH1 0x40 MLOAD SWAP2 POP PUSH1 0x1F NOT PUSH1 0x3F RETURNDATASIZE ADD AND DUP3 ADD PUSH1 0x40 MSTORE RETURNDATASIZE DUP3 MSTORE RETURNDATASIZE PUSH1 0x0 PUSH1 0x20 DUP5 ADD RETURNDATACOPY PUSH2 0x164B JUMP JUMPDEST PUSH1 0x60 SWAP2 POP JUMPDEST POP SWAP2 POP SWAP2 POP DUP2 PUSH2 0x166D JUMPI PUSH1 0x40 MLOAD PUSH3 0x461BCD PUSH1 0xE5 SHL DUP2 MSTORE PUSH1 0x4 ADD PUSH2 0xAF SWAP1 PUSH2 0x215E JUMP JUMPDEST DUP1 MLOAD ISZERO PUSH2 0x12E1 JUMPI DUP1 DUP1 PUSH1 0x20 ADD SWAP1 MLOAD DUP2 ADD SWAP1 PUSH2 0x1688 SWAP2 SWAP1 PUSH2 0x18F9 JUMP JUMPDEST PUSH2 0x12E1 JUMPI PUSH1 0x40 MLOAD PUSH3 0x461BCD PUSH1 0xE5 SHL DUP2 MSTORE PUSH1 0x4 ADD PUSH2 0xAF SWAP1 PUSH2 0x20C1 JUMP JUMPDEST PUSH1 0x0 PUSH2 0x16F9 DUP3 PUSH1 0x40 MLOAD DUP1 PUSH1 0x40 ADD PUSH1 0x40 MSTORE DUP1 PUSH1 0x20 DUP2 MSTORE PUSH1 0x20 ADD PUSH32 0x5361666545524332303A206C6F772D6C6576656C2063616C6C206661696C6564 DUP2 MSTORE POP DUP6 PUSH1 0x1 PUSH1 0x1 PUSH1 0xA0 SHL SUB AND PUSH2 0x1733 SWAP1 SWAP3 SWAP2 SWAP1 PUSH4 0xFFFFFFFF AND JUMP JUMPDEST DUP1 MLOAD SWAP1 SWAP2 POP ISZERO PUSH2 0x10F3 JUMPI DUP1 DUP1 PUSH1 0x20 ADD SWAP1 MLOAD DUP2 ADD SWAP1 PUSH2 0x1717 SWAP2 SWAP1 PUSH2 0x18F9 JUMP JUMPDEST PUSH2 0x10F3 JUMPI PUSH1 0x40 MLOAD PUSH3 0x461BCD PUSH1 0xE5 SHL DUP2 MSTORE PUSH1 0x4 ADD PUSH2 0xAF SWAP1 PUSH2 0x21C4 JUMP JUMPDEST PUSH1 0x60 PUSH2 0x1742 DUP5 DUP5 PUSH1 0x0 DUP6 PUSH2 0x174A JUMP JUMPDEST SWAP5 SWAP4 POP POP POP POP JUMP JUMPDEST PUSH1 0x60 DUP3 SELFBALANCE LT ISZERO PUSH2 0x176C JUMPI PUSH1 0x40 MLOAD PUSH3 0x461BCD PUSH1 0xE5 SHL DUP2 MSTORE PUSH1 0x4 ADD PUSH2 0xAF SWAP1 PUSH2 0x1F60 JUMP JUMPDEST PUSH2 0x1775 DUP6 PUSH2 0x180A JUMP JUMPDEST PUSH2 0x1791 JUMPI PUSH1 0x40 MLOAD PUSH3 0x461BCD PUSH1 0xE5 SHL DUP2 MSTORE PUSH1 0x4 ADD PUSH2 0xAF SWAP1 PUSH2 0x218D JUMP JUMPDEST PUSH1 0x0 DUP1 DUP7 PUSH1 0x1 PUSH1 0x1 PUSH1 0xA0 SHL SUB AND DUP6 DUP8 PUSH1 0x40 MLOAD PUSH2 0x17AD SWAP2 SWAP1 PUSH2 0x1B80 JUMP JUMPDEST PUSH1 0x0 PUSH1 0x40 MLOAD DUP1 DUP4 SUB DUP2 DUP6 DUP8 GAS CALL SWAP3 POP POP POP RETURNDATASIZE DUP1 PUSH1 0x0 DUP2 EQ PUSH2 0x17EA JUMPI PUSH1 0x40 MLOAD SWAP2 POP PUSH1 0x1F NOT PUSH1 0x3F RETURNDATASIZE ADD AND DUP3 ADD PUSH1 0x40 MSTORE RETURNDATASIZE DUP3 MSTORE RETURNDATASIZE PUSH1 0x0 PUSH1 0x20 DUP5 ADD RETURNDATACOPY PUSH2 0x17EF JUMP JUMPDEST PUSH1 0x60 SWAP2 POP JUMPDEST POP SWAP2 POP SWAP2 POP PUSH2 0x17FF DUP3 DUP3 DUP7 PUSH2 0x1810 JUMP JUMPDEST SWAP8 SWAP7 POP POP POP POP POP POP POP JUMP JUMPDEST EXTCODESIZE ISZERO ISZERO SWAP1 JUMP JUMPDEST PUSH1 0x60 DUP4 ISZERO PUSH2 0x181F JUMPI POP DUP2 PUSH2 0x1408 JUMP JUMPDEST DUP3 MLOAD ISZERO PUSH2 0x182F JUMPI DUP3 MLOAD DUP1 DUP5 PUSH1 0x20 ADD REVERT JUMPDEST DUP2 PUSH1 0x40 MLOAD PUSH3 0x461BCD PUSH1 0xE5 SHL DUP2 MSTORE PUSH1 0x4 ADD PUSH2 0xAF SWAP2 SWAP1 PUSH2 0x1DF4 JUMP JUMPDEST DUP1 CALLDATALOAD PUSH2 0x112F DUP2 PUSH2 0x22E8 JUMP JUMPDEST PUSH1 0x0 DUP1 DUP4 PUSH1 0x1F DUP5 ADD SLT PUSH2 0x1865 JUMPI DUP2 DUP3 REVERT JUMPDEST POP DUP2 CALLDATALOAD PUSH8 0xFFFFFFFFFFFFFFFF DUP2 GT ISZERO PUSH2 0x187C JUMPI DUP2 DUP3 REVERT JUMPDEST PUSH1 0x20 DUP4 ADD SWAP2 POP DUP4 PUSH1 0x20 DUP1 DUP4 MUL DUP6 ADD ADD GT ISZERO PUSH2 0x1896 JUMPI PUSH1 0x0 DUP1 REVERT JUMPDEST SWAP3 POP SWAP3 SWAP1 POP JUMP JUMPDEST PUSH1 0x0 DUP1 DUP4 PUSH1 0x1F DUP5 ADD SLT PUSH2 0x18AE JUMPI DUP2 DUP3 REVERT JUMPDEST POP DUP2 CALLDATALOAD PUSH8 0xFFFFFFFFFFFFFFFF DUP2 GT ISZERO PUSH2 0x18C5 JUMPI DUP2 DUP3 REVERT JUMPDEST PUSH1 0x20 DUP4 ADD SWAP2 POP DUP4 PUSH1 0x20 DUP3 DUP6 ADD ADD GT ISZERO PUSH2 0x1896 JUMPI PUSH1 0x0 DUP1 REVERT JUMPDEST PUSH1 0x0 PUSH1 0x20 DUP3 DUP5 SUB SLT ISZERO PUSH2 0x18EE JUMPI DUP1 DUP2 REVERT JUMPDEST DUP2 CALLDATALOAD PUSH2 0x1408 DUP2 PUSH2 0x22E8 JUMP JUMPDEST PUSH1 0x0 PUSH1 0x20 DUP3 DUP5 SUB SLT ISZERO PUSH2 0x190A JUMPI DUP1 DUP2 REVERT JUMPDEST DUP2 MLOAD DUP1 ISZERO ISZERO DUP2 EQ PUSH2 0x1408 JUMPI DUP2 DUP3 REVERT JUMPDEST PUSH1 0x0 DUP1 PUSH1 0x0 DUP1 PUSH1 0x60 DUP6 DUP8 SUB SLT ISZERO PUSH2 0x192E JUMPI DUP3 DUP4 REVERT JUMPDEST DUP5 CALLDATALOAD PUSH2 0x1939 DUP2 PUSH2 0x22E8 JUMP JUMPDEST SWAP4 POP PUSH1 0x20 DUP6 ADD CALLDATALOAD PUSH8 0xFFFFFFFFFFFFFFFF DUP1 DUP3 GT ISZERO PUSH2 0x1955 JUMPI DUP5 DUP6 REVERT JUMPDEST SWAP1 DUP7 ADD SWAP1 PUSH2 0x100 DUP3 DUP10 SUB SLT ISZERO PUSH2 0x1969 JUMPI DUP5 DUP6 REVERT JUMPDEST SWAP1 SWAP4 POP PUSH1 0x40 DUP7 ADD CALLDATALOAD SWAP1 DUP1 DUP3 GT ISZERO PUSH2 0x197E JUMPI DUP4 DUP5 REVERT JUMPDEST POP PUSH2 0x198B DUP8 DUP3 DUP9 ADD PUSH2 0x189D JUMP JUMPDEST SWAP6 SWAP9 SWAP5 SWAP8 POP SWAP6 POP POP POP POP JUMP JUMPDEST PUSH1 0x0 DUP1 PUSH1 0x40 DUP4 DUP6 SUB SLT ISZERO PUSH2 0x19A9 JUMPI DUP2 DUP3 REVERT JUMPDEST DUP3 MLOAD PUSH2 0x19B4 DUP2 PUSH2 0x22E8 JUMP JUMPDEST PUSH1 0x20 SWAP4 SWAP1 SWAP4 ADD MLOAD SWAP3 SWAP5 SWAP3 SWAP4 POP POP POP JUMP JUMPDEST PUSH1 0x0 DUP1 PUSH1 0x40 DUP4 DUP6 SUB SLT ISZERO PUSH2 0x19D6 JUMPI DUP2 DUP3 REVERT JUMPDEST DUP3 CALLDATALOAD PUSH2 0x19E1 DUP2 PUSH2 0x22E8 JUMP JUMPDEST SWAP5 PUSH1 0x20 SWAP4 SWAP1 SWAP4 ADD CALLDATALOAD SWAP4 POP POP POP JUMP JUMPDEST PUSH1 0x0 DUP1 PUSH1 0x0 DUP1 PUSH1 0x0 PUSH1 0x80 DUP7 DUP9 SUB SLT ISZERO PUSH2 0x1A06 JUMPI DUP1 DUP2 REVERT JUMPDEST DUP6 CALLDATALOAD PUSH2 0x1A11 DUP2 PUSH2 0x22E8 JUMP JUMPDEST SWAP5 POP PUSH1 0x20 DUP7 ADD CALLDATALOAD SWAP4 POP PUSH1 0x40 DUP7 ADD CALLDATALOAD SWAP3 POP PUSH1 0x60 DUP7 ADD CALLDATALOAD PUSH8 0xFFFFFFFFFFFFFFFF DUP2 GT ISZERO PUSH2 0x1A3A JUMPI DUP2 DUP3 REVERT JUMPDEST PUSH2 0x1A46 DUP9 DUP3 DUP10 ADD PUSH2 0x1854 JUMP JUMPDEST SWAP7 SWAP10 SWAP6 SWAP9 POP SWAP4 SWAP7 POP SWAP3 SWAP5 SWAP4 SWAP3 POP POP POP JUMP JUMPDEST PUSH1 0x0 DUP1 PUSH1 0x0 DUP1 PUSH1 0x0 DUP1 PUSH1 0x0 PUSH1 0xA0 DUP9 DUP11 SUB SLT ISZERO PUSH2 0x1A71 JUMPI DUP2 DUP3 REVERT JUMPDEST DUP8 CALLDATALOAD PUSH2 0x1A7C DUP2 PUSH2 0x22E8 JUMP JUMPDEST SWAP7 POP PUSH1 0x20 DUP9 ADD CALLDATALOAD SWAP6 POP PUSH1 0x40 DUP9 ADD CALLDATALOAD SWAP5 POP PUSH1 0x60 DUP9 ADD CALLDATALOAD PUSH8 0xFFFFFFFFFFFFFFFF DUP1 DUP3 GT ISZERO PUSH2 0x1AA6 JUMPI DUP4 DUP5 REVERT JUMPDEST PUSH2 0x1AB2 DUP12 DUP4 DUP13 ADD PUSH2 0x1854 JUMP JUMPDEST SWAP1 SWAP7 POP SWAP5 POP PUSH1 0x80 DUP11 ADD CALLDATALOAD SWAP2 POP DUP1 DUP3 GT ISZERO PUSH2 0x1ACA JUMPI DUP4 DUP5 REVERT JUMPDEST POP PUSH2 0x1AD7 DUP11 DUP3 DUP12 ADD PUSH2 0x189D JUMP JUMPDEST SWAP9 SWAP12 SWAP8 SWAP11 POP SWAP6 SWAP9 POP SWAP4 SWAP7 SWAP3 SWAP6 SWAP3 SWAP4 POP POP POP JUMP JUMPDEST PUSH1 0x0 PUSH1 0x20 DUP3 DUP5 SUB SLT ISZERO PUSH2 0x1AFB JUMPI DUP1 DUP2 REVERT JUMPDEST POP MLOAD SWAP2 SWAP1 POP JUMP JUMPDEST PUSH1 0x0 DUP1 PUSH1 0x40 DUP4 DUP6 SUB SLT ISZERO PUSH2 0x1B14 JUMPI DUP2 DUP3 REVERT JUMPDEST POP POP DUP1 MLOAD PUSH1 0x20 SWAP1 SWAP2 ADD MLOAD SWAP1 SWAP3 SWAP1 SWAP2 POP JUMP JUMPDEST PUSH1 0x1 PUSH1 0x1 PUSH1 0xA0 SHL SUB AND SWAP1 MSTORE JUMP JUMPDEST PUSH1 0x0 DUP3 DUP5 MSTORE DUP3 DUP3 PUSH1 0x20 DUP7 ADD CALLDATACOPY DUP1 PUSH1 0x20 DUP5 DUP7 ADD ADD MSTORE PUSH1 0x20 PUSH1 0x1F NOT PUSH1 0x1F DUP6 ADD AND DUP6 ADD ADD SWAP1 POP SWAP4 SWAP3 POP POP POP JUMP JUMPDEST PUSH1 0x1 PUSH1 0x1 PUSH1 0xE0 SHL SUB NOT DUP5 AND DUP2 MSTORE PUSH1 0x0 DUP3 DUP5 PUSH1 0x4 DUP5 ADD CALLDATACOPY SWAP2 ADD PUSH1 0x4 ADD SWAP1 DUP2 MSTORE SWAP3 SWAP2 POP POP JUMP JUMPDEST PUSH1 0x0 DUP3 MLOAD PUSH2 0x1B92 DUP2 DUP5 PUSH1 0x20 DUP8 ADD PUSH2 0x22BC JUMP JUMPDEST SWAP2 SWAP1 SWAP2 ADD SWAP3 SWAP2 POP POP JUMP JUMPDEST PUSH1 0x0 DUP4 MLOAD PUSH2 0x1BAE DUP2 DUP5 PUSH1 0x20 DUP9 ADD PUSH2 0x22BC JUMP JUMPDEST PUSH6 0xA0C2DCD2C65 PUSH1 0xD3 SHL SWAP1 DUP4 ADD SWAP1 DUP2 MSTORE DUP4 MLOAD PUSH2 0x1BD1 DUP2 PUSH1 0x6 DUP5 ADD PUSH1 0x20 DUP9 ADD PUSH2 0x22BC JUMP JUMPDEST PUSH1 0x29 PUSH1 0xF8 SHL PUSH1 0x6 SWAP3 SWAP1 SWAP2 ADD SWAP2 DUP3 ADD MSTORE PUSH1 0x7 ADD SWAP5 SWAP4 POP POP POP POP JUMP JUMPDEST PUSH1 0x0 DUP4 MLOAD PUSH2 0x1BFD DUP2 DUP5 PUSH1 0x20 DUP9 ADD PUSH2 0x22BC JUMP JUMPDEST PUSH8 0xAADCD6DCDEEEDC5 PUSH1 0xC3 SHL SWAP1 DUP4 ADD SWAP1 DUP2 MSTORE DUP4 MLOAD PUSH2 0x1C22 DUP2 PUSH1 0x8 DUP5 ADD PUSH1 0x20 DUP9 ADD PUSH2 0x22BC JUMP JUMPDEST PUSH1 0x29 PUSH1 0xF8 SHL PUSH1 0x8 SWAP3 SWAP1 SWAP2 ADD SWAP2 DUP3 ADD MSTORE PUSH1 0x9 ADD SWAP5 SWAP4 POP POP POP POP JUMP JUMPDEST PUSH1 0x0 DUP4 MLOAD PUSH2 0x1C4E DUP2 DUP5 PUSH1 0x20 DUP9 ADD PUSH2 0x22BC JUMP JUMPDEST PUSH6 0x8AE4E4DEE45 PUSH1 0xD3 SHL SWAP1 DUP4 ADD SWAP1 DUP2 MSTORE DUP4 MLOAD PUSH2 0x1BD1 DUP2 PUSH1 0x6 DUP5 ADD PUSH1 0x20 DUP9 ADD PUSH2 0x22BC JUMP JUMPDEST SWAP1 DUP2 MSTORE PUSH1 0x20 ADD SWAP1 JUMP JUMPDEST PUSH1 0x1 PUSH1 0x1 PUSH1 0xA0 SHL SUB SWAP2 SWAP1 SWAP2 AND DUP2 MSTORE PUSH1 0x20 ADD SWAP1 JUMP JUMPDEST PUSH1 0x1 PUSH1 0x1 PUSH1 0xA0 SHL SUB SWAP3 DUP4 AND DUP2 MSTORE SWAP2 AND PUSH1 0x20 DUP3 ADD MSTORE PUSH1 0x40 ADD SWAP1 JUMP JUMPDEST PUSH1 0x1 PUSH1 0x1 PUSH1 0xA0 SHL SUB SWAP7 DUP8 AND DUP2 MSTORE SWAP5 DUP7 AND PUSH1 0x20 DUP7 ADD MSTORE SWAP3 DUP6 AND PUSH1 0x40 DUP6 ADD MSTORE SWAP4 AND PUSH1 0x60 DUP4 ADD MSTORE PUSH1 0x80 DUP3 ADD SWAP3 SWAP1 SWAP3 MSTORE PUSH1 0xA0 DUP2 ADD SWAP2 SWAP1 SWAP2 MSTORE PUSH1 0xC0 ADD SWAP1 JUMP JUMPDEST PUSH1 0x1 PUSH1 0x1 PUSH1 0xA0 SHL SUB SWAP3 SWAP1 SWAP3 AND DUP3 MSTORE PUSH1 0x20 DUP3 ADD MSTORE PUSH1 0x40 ADD SWAP1 JUMP JUMPDEST PUSH1 0x1 PUSH1 0x1 PUSH1 0xA0 SHL SUB SWAP4 DUP5 AND DUP2 MSTORE SWAP2 SWAP1 SWAP3 AND PUSH1 0x20 DUP3 ADD MSTORE PUSH1 0x40 DUP2 ADD SWAP2 SWAP1 SWAP2 MSTORE PUSH1 0x60 ADD SWAP1 JUMP JUMPDEST PUSH1 0x1 PUSH1 0x1 PUSH1 0xA0 SHL SUB DUP6 AND DUP2 MSTORE PUSH1 0x60 PUSH1 0x20 DUP3 ADD DUP2 SWAP1 MSTORE PUSH1 0x0 SWAP1 PUSH2 0x1D4B SWAP1 DUP4 ADD PUSH2 0x1D46 DUP8 PUSH2 0x1849 JUMP JUMPDEST PUSH2 0x1B25 JUMP JUMPDEST PUSH2 0x1D57 PUSH1 0x20 DUP7 ADD PUSH2 0x1849 JUMP JUMPDEST PUSH2 0x1D64 PUSH1 0x80 DUP5 ADD DUP3 PUSH2 0x1B25 JUMP JUMPDEST POP PUSH2 0x1D71 PUSH1 0x40 DUP7 ADD PUSH2 0x1849 JUMP JUMPDEST PUSH2 0x1D7E PUSH1 0xA0 DUP5 ADD DUP3 PUSH2 0x1B25 JUMP JUMPDEST POP PUSH2 0x1D8B PUSH1 0x60 DUP7 ADD PUSH2 0x1849 JUMP JUMPDEST PUSH2 0x1D98 PUSH1 0xC0 DUP5 ADD DUP3 PUSH2 0x1B25 JUMP JUMPDEST POP PUSH1 0x80 DUP6 ADD CALLDATALOAD PUSH1 0xE0 DUP4 ADD MSTORE PUSH2 0x100 PUSH1 0xA0 DUP7 ADD CALLDATALOAD DUP2 DUP5 ADD MSTORE PUSH1 0xC0 DUP7 ADD CALLDATALOAD PUSH2 0x120 DUP5 ADD MSTORE PUSH2 0x1DC7 PUSH1 0xE0 DUP8 ADD DUP8 PUSH2 0x2277 JUMP JUMPDEST DUP3 PUSH2 0x140 DUP7 ADD MSTORE PUSH2 0x1DDD PUSH2 0x160 DUP7 ADD DUP3 DUP5 PUSH2 0x1B32 JUMP JUMPDEST SWAP3 POP POP POP DUP3 DUP2 SUB PUSH1 0x40 DUP5 ADD MSTORE PUSH2 0x17FF DUP2 DUP6 DUP8 PUSH2 0x1B32 JUMP JUMPDEST PUSH1 0x0 PUSH1 0x20 DUP3 MSTORE DUP3 MLOAD DUP1 PUSH1 0x20 DUP5 ADD MSTORE PUSH2 0x1E13 DUP2 PUSH1 0x40 DUP6 ADD PUSH1 0x20 DUP8 ADD PUSH2 0x22BC JUMP JUMPDEST PUSH1 0x1F ADD PUSH1 0x1F NOT AND SWAP2 SWAP1 SWAP2 ADD PUSH1 0x40 ADD SWAP3 SWAP2 POP POP JUMP JUMPDEST PUSH1 0x20 DUP1 DUP3 MSTORE PUSH1 0x12 SWAP1 DUP3 ADD MSTORE PUSH18 0x86D8C2D2DA40E8DED6CADC40D2E6408AA89 PUSH1 0x73 SHL PUSH1 0x40 DUP3 ADD MSTORE PUSH1 0x60 ADD SWAP1 JUMP JUMPDEST PUSH1 0x20 DUP1 DUP3 MSTORE PUSH1 0x26 SWAP1 DUP3 ADD MSTORE PUSH32 0x4F776E61626C653A206E6577206F776E657220697320746865207A65726F2061 PUSH1 0x40 DUP3 ADD MSTORE PUSH6 0x646472657373 PUSH1 0xD0 SHL PUSH1 0x60 DUP3 ADD MSTORE PUSH1 0x80 ADD SWAP1 JUMP JUMPDEST PUSH1 0x20 DUP1 DUP3 MSTORE PUSH1 0x1B SWAP1 DUP3 ADD MSTORE PUSH32 0x536166654D6174683A206164646974696F6E206F766572666C6F770000000000 PUSH1 0x40 DUP3 ADD MSTORE PUSH1 0x60 ADD SWAP1 JUMP JUMPDEST PUSH1 0x20 DUP1 DUP3 MSTORE PUSH1 0x14 SWAP1 DUP3 ADD MSTORE PUSH20 0x1155120819195C1BDCDA5D081C995A9958DD1959 PUSH1 0x62 SHL PUSH1 0x40 DUP3 ADD MSTORE PUSH1 0x60 ADD SWAP1 JUMP JUMPDEST PUSH1 0x20 DUP1 DUP3 MSTORE PUSH1 0x11 SWAP1 DUP3 ADD MSTORE PUSH17 0x496E76616C6964206D73672E76616C7565 PUSH1 0x78 SHL PUSH1 0x40 DUP3 ADD MSTORE PUSH1 0x60 ADD SWAP1 JUMP JUMPDEST PUSH1 0x20 DUP1 DUP3 MSTORE PUSH1 0x1E SWAP1 DUP3 ADD MSTORE PUSH32 0x536166654D6174683A207375627472616374696F6E206F766572666C6F770000 PUSH1 0x40 DUP3 ADD MSTORE PUSH1 0x60 ADD SWAP1 JUMP JUMPDEST PUSH1 0x20 DUP1 DUP3 MSTORE PUSH1 0x26 SWAP1 DUP3 ADD MSTORE PUSH32 0x416464726573733A20696E73756666696369656E742062616C616E636520666F PUSH1 0x40 DUP3 ADD MSTORE PUSH6 0x1C8818D85B1B PUSH1 0xD2 SHL PUSH1 0x60 DUP3 ADD MSTORE PUSH1 0x80 ADD SWAP1 JUMP JUMPDEST PUSH1 0x20 DUP1 DUP3 MSTORE PUSH1 0x18 SWAP1 DUP3 ADD MSTORE PUSH32 0x496E636F727265637420434849206275726E20666C6167730000000000000000 PUSH1 0x40 DUP3 ADD MSTORE PUSH1 0x60 ADD SWAP1 JUMP JUMPDEST PUSH1 0x20 DUP1 DUP3 MSTORE PUSH1 0x1B SWAP1 DUP3 ADD MSTORE PUSH32 0x52657475726E20616D6F756E74206973206E6F7420656E6F7567680000000000 PUSH1 0x40 DUP3 ADD MSTORE PUSH1 0x60 ADD SWAP1 JUMP JUMPDEST PUSH1 0x20 DUP1 DUP3 MSTORE PUSH1 0x1A SWAP1 DUP3 ADD MSTORE PUSH32 0x4D696E2072657475726E2073686F756C64206E6F742062652030000000000000 PUSH1 0x40 DUP3 ADD MSTORE PUSH1 0x60 ADD SWAP1 JUMP JUMPDEST PUSH1 0x20 DUP1 DUP3 MSTORE PUSH1 0x21 SWAP1 DUP3 ADD MSTORE PUSH32 0x536166654D6174683A206D756C7469706C69636174696F6E206F766572666C6F PUSH1 0x40 DUP3 ADD MSTORE PUSH1 0x77 PUSH1 0xF8 SHL PUSH1 0x60 DUP3 ADD MSTORE PUSH1 0x80 ADD SWAP1 JUMP JUMPDEST PUSH1 0x20 DUP1 DUP3 MSTORE DUP2 DUP2 ADD MSTORE PUSH32 0x4F776E61626C653A2063616C6C6572206973206E6F7420746865206F776E6572 PUSH1 0x40 DUP3 ADD MSTORE PUSH1 0x60 ADD SWAP1 JUMP JUMPDEST PUSH1 0x20 DUP1 DUP3 MSTORE PUSH1 0x1F SWAP1 DUP3 ADD MSTORE PUSH32 0x4552433230206F7065726174696F6E20646964206E6F74207375636365656400 PUSH1 0x40 DUP3 ADD MSTORE PUSH1 0x60 ADD SWAP1 JUMP JUMPDEST PUSH1 0x20 DUP1 DUP3 MSTORE PUSH1 0x17 SWAP1 DUP3 ADD MSTORE PUSH32 0x646174612073686F756C64206265206E6F74207A65726F000000000000000000 PUSH1 0x40 DUP3 ADD MSTORE PUSH1 0x60 ADD SWAP1 JUMP JUMPDEST PUSH1 0x20 DUP1 DUP3 MSTORE PUSH1 0x15 SWAP1 DUP3 ADD MSTORE PUSH21 0x24B73B30B634B2103932BB32B93A103932B0B9B7B7 PUSH1 0x59 SHL PUSH1 0x40 DUP3 ADD MSTORE PUSH1 0x60 ADD SWAP1 JUMP JUMPDEST PUSH1 0x20 DUP1 DUP3 MSTORE PUSH1 0x15 SWAP1 DUP3 ADD MSTORE PUSH21 0x1B1BDDCB5B195D995B0818D85B1B0819985A5B1959 PUSH1 0x5A SHL PUSH1 0x40 DUP3 ADD MSTORE PUSH1 0x60 ADD SWAP1 JUMP JUMPDEST PUSH1 0x20 DUP1 DUP3 MSTORE PUSH1 0x1D SWAP1 DUP3 ADD MSTORE PUSH32 0x416464726573733A2063616C6C20746F206E6F6E2D636F6E7472616374000000 PUSH1 0x40 DUP3 ADD MSTORE PUSH1 0x60 ADD SWAP1 JUMP JUMPDEST PUSH1 0x20 DUP1 DUP3 MSTORE PUSH1 0x2A SWAP1 DUP3 ADD MSTORE PUSH32 0x5361666545524332303A204552433230206F7065726174696F6E20646964206E PUSH1 0x40 DUP3 ADD MSTORE PUSH10 0x1BDD081CDD58D8D95959 PUSH1 0xB2 SHL PUSH1 0x60 DUP3 ADD MSTORE PUSH1 0x80 ADD SWAP1 JUMP JUMPDEST SWAP2 DUP3 MSTORE PUSH1 0x20 DUP3 ADD MSTORE PUSH1 0x40 ADD SWAP1 JUMP JUMPDEST SWAP3 DUP4 MSTORE PUSH1 0x20 DUP4 ADD SWAP2 SWAP1 SWAP2 MSTORE PUSH1 0x40 DUP3 ADD MSTORE PUSH1 0x60 ADD SWAP1 JUMP JUMPDEST PUSH1 0x0 DUP1 DUP4 CALLDATALOAD PUSH1 0x1E NOT DUP5 CALLDATASIZE SUB ADD DUP2 SLT PUSH2 0x2248 JUMPI DUP3 DUP4 REVERT JUMPDEST DUP4 ADD DUP1 CALLDATALOAD SWAP2 POP PUSH8 0xFFFFFFFFFFFFFFFF DUP3 GT ISZERO PUSH2 0x2262 JUMPI DUP3 DUP4 REVERT JUMPDEST PUSH1 0x20 ADD SWAP2 POP CALLDATASIZE DUP2 SWAP1 SUB DUP3 SGT ISZERO PUSH2 0x1896 JUMPI PUSH1 0x0 DUP1 REVERT JUMPDEST PUSH1 0x0 DUP1 DUP4 CALLDATALOAD PUSH1 0x1E NOT DUP5 CALLDATASIZE SUB ADD DUP2 SLT PUSH2 0x228D JUMPI DUP3 DUP4 REVERT JUMPDEST DUP4 ADD PUSH1 0x20 DUP2 ADD SWAP3 POP CALLDATALOAD SWAP1 POP PUSH8 0xFFFFFFFFFFFFFFFF DUP2 GT ISZERO PUSH2 0x22AD JUMPI PUSH1 0x0 DUP1 REVERT JUMPDEST DUP1 CALLDATASIZE SUB DUP4 SGT ISZERO PUSH2 0x1896 JUMPI PUSH1 0x0 DUP1 REVERT JUMPDEST PUSH1 0x0 JUMPDEST DUP4 DUP2 LT ISZERO PUSH2 0x22D7 JUMPI DUP2 DUP2 ADD MLOAD DUP4 DUP3 ADD MSTORE PUSH1 0x20 ADD PUSH2 0x22BF JUMP JUMPDEST DUP4 DUP2 GT ISZERO PUSH2 0x12E1 JUMPI POP POP PUSH1 0x0 SWAP2 ADD MSTORE JUMP JUMPDEST PUSH1 0x1 PUSH1 0x1 PUSH1 0xA0 SHL SUB DUP2 AND DUP2 EQ PUSH2 0x22FD JUMPI PUSH1 0x0 DUP1 REVERT JUMPDEST POP JUMP INVALID LOG2 PUSH5 0x6970667358 0x22 SLT KECCAK256 0xE8 0xD4 0xED LOG1 0x4C SMOD 0x5E RETURNDATASIZE EXTCODESIZE DELEGATECALL LOG4 MUL JUMP CHAINID LOG3 SHR 0x4C 0xD DUP11 SWAP2 0xB2 PUSH27 0x27005F720B77F7CF153A64736F6C63430007060033000000000000 ",
  "sha1": "0b101ad349e04cff7e2055aaa7af90fe259bbdac",
  "source": "/**\n *Submitted for verification at Etherscan.io on 2021-11-01\n*/\n\n/**\n *Submitted for verification at Etherscan.io on 2021-03-11\n*/\n\n/*\n                                                           ,▄▓▓██▌   ,╓▄▄▓▓▓▓▓▓▓▓▄▄▄,,                          \n                                                        ,▓██▓███▓▄▓███▓╬╬╬╬╬╬╬╬╬╬╬╬╬▓███▓▄,                     \n                                                  ▄█   ▓██╬╣███████╬▓▀╬╬▓▓▓████████████▓█████▄,                 \n                                                 ▓██▌ ▓██╬╣██████╬▓▌  ██████████████████████▌╙╙▀ⁿ\n                                                ▐████████╬▓████▓▓█╨ ▄ ╟█████████▓▓╬╬╬╬╬▓▓█████▓▄\n                                  └▀▓▓▄╓        ╟█▓╣█████▓██████▀ ╓█▌ ███████▓▓▓▓▓╬╬╬╬╬╬╬╬╬╬╬╬▓██▓▄\n                                     └▀████▓▄╥  ▐██╬╬██████████╙ Æ▀─ ▓███▀╚╠╬╩▀▀███████▓▓╬╬╬╬╬╬╬╬╬██▄\n                                        └▀██▓▀▀█████▓╬▓██████▀     ▄█████▒╠\"      └╙▓██████▓╬╬╬╬╬╬╬╬██▄\n                                           └▀██▄,└╙▀▀████▌└╙    ^\"▀╙╙╙\"╙██      @▄    ╙▀███████╬╬╬╬╬╬╬██µ\n                                              └▀██▓▄, ██▌       ╒       ╙█▓     ]▓█▓╔    ▀███████▓╬╬╬╬╬▓█▌\n                                                  ▀█████       ▓         ╟█▌    ]╠██▓░▒╓   ▀████████╬╬╬╬╣█▌\n                                                  ▐████      ╓█▀█▌      ,██▌    ╚Å███▓▒▒╠╓  ╙█████████╬╬╬╣█▌\n                                                  └████     ▓█░░▓█      ▀▀▀    φ▒╫████▒▒▒▒╠╓  █████████▓╬╬▓█µ\n                                                   ╘███µ ▌▄█▓▄▓▀`     ,▀    ,╔╠░▓██████▌╠▒▒▒φ  ██████████╬╬██\n                                                   ▐████µ╙▓▀`     ,▀╙,╔╔φφφ╠░▄▓███████▌░▓╙▒▒▒╠ └██╬███████╬▓█⌐\n                                                   ╫██ ▓▌         ▌φ▒▒░▓██████████████▌▒░▓╚▒▒▒╠ ▓██╬▓██████╣█▌\n                                                   ██▌           ▌╔▒▒▄████████████████▒▒▒░▌╠▒▒▒≥▐██▓╬╬███████▌\n                                                   ██▌      ,╓φ╠▓«▒▒▓████▀  ▀█████████▌▒▒▒╟░▒▒▒▒▐███╬╬╣████▓█▌\n                                                  ▐██      ╠▒▄▓▓███▓████└     ▀████████▌▒▒░▌╚▒▒▒▐███▓╬╬████ ╙▌\n                                                  ███  )  ╠▒░░░▒░╬████▀        └████████░▒▒░╬∩▒▒▓████╬╬╣███\n                                                 ▓██    ╠╠▒▒▐█▀▀▌`░╫██           ███████▒▒▒▒░▒▒½█████╬╬╣███\n                                                ███ ,█▄ ╠▒▒▒╫▌,▄▀,▒╫██           ╟██████▒▒▒░╣⌠▒▓█████╬╬╣██▌\n                                               ╘██µ ██` ╠▒▒░██╬φ╠▄▓██`            ██████░░▌φ╠░▓█████▓╬╬▓██\n                                                ╟██  .φ╠▒░▄█▀░░▄██▀└              █████▌▒╣φ▒░▓██████╬╬╣██\n                                                 ▀██▄▄▄╓▄███████▀                ▐█████░▓φ▒▄███████▓╬╣██\n                                                   ╙▀▀▀██▀└                      ████▓▄▀φ▄▓████████╬▓█▀\n                                                                                ▓███╬╩╔╣██████████▓██└\n                                                                              ╓████▀▄▓████████▀████▀\n                                                                            ,▓███████████████─]██╙\n                                                                         ,▄▓██████████████▀└  ╙\n                                                                    ,╓▄▓███████████████▀╙\n                                                             `\"▀▀▀████████▀▀▀▀`▄███▀▀└\n                                                                              └└\n                                \n                    \n\n                    11\\   11\\                     11\\             11\\   11\\            11\\                                       11\\       \n                  1111 |  \\__|                    11 |            111\\  11 |           11 |                                      11 |      \n                  \\_11 |  11\\ 1111111\\   1111111\\ 1111111\\        1111\\ 11 | 111111\\ 111111\\   11\\  11\\  11\\  111111\\   111111\\  11 |  11\\ \n                    11 |  11 |11  __11\\ 11  _____|11  __11\\       11 11\\11 |11  __11\\\\_11  _|  11 | 11 | 11 |11  __11\\ 11  __11\\ 11 | 11  |\n                    11 |  11 |11 |  11 |11 /      11 |  11 |      11 \\1111 |11111111 | 11 |    11 | 11 | 11 |11 /  11 |11 |  \\__|111111  / \n                    11 |  11 |11 |  11 |11 |      11 |  11 |      11 |\\111 |11   ____| 11 |11\\ 11 | 11 | 11 |11 |  11 |11 |      11  _11<  \n                  111111\\ 11 |11 |  11 |\\1111111\\ 11 |  11 |      11 | \\11 |\\1111111\\  \\1111  |\\11111\\1111  |\\111111  |11 |      11 | \\11\\ \n                  \\______|\\__|\\__|  \\__| \\_______|\\__|  \\__|      \\__|  \\__| \\_______|  \\____/  \\_____\\____/  \\______/ \\__|      \\__|  \\__|\n                                                                                                                                           \n                                                                                                                                           \n                                                                                                                                           \n                               111111\\                                                               11\\     11\\                           \n                              11  __11\\                                                              11 |    \\__|                          \n                              11 /  11 | 111111\\   111111\\   111111\\   111111\\   111111\\   111111\\ 111111\\   11\\  111111\\  1111111\\        \n                              11111111 |11  __11\\ 11  __11\\ 11  __11\\ 11  __11\\ 11  __11\\  \\____11\\\\_11  _|  11 |11  __11\\ 11  __11\\       \n                              11  __11 |11 /  11 |11 /  11 |11 |  \\__|11111111 |11 /  11 | 1111111 | 11 |    11 |11 /  11 |11 |  11 |      \n                              11 |  11 |11 |  11 |11 |  11 |11 |      11   ____|11 |  11 |11  __11 | 11 |11\\ 11 |11 |  11 |11 |  11 |      \n                              11 |  11 |\\1111111 |\\1111111 |11 |      \\1111111\\ \\1111111 |\\1111111 | \\1111  |11 |\\111111  |11 |  11 |      \n                              \\__|  \\__| \\____11 | \\____11 |\\__|       \\_______| \\____11 | \\_______|  \\____/ \\__| \\______/ \\__|  \\__|      \n                                        11\\   11 |11\\   11 |                    11\\   11 |                                                 \n                                        \\111111  |\\111111  |                    \\111111  |                                                 \n                                         \\______/  \\______/                      \\______/                                                  \n                                                1111111\\                        11\\                                                        \n                                                11  __11\\                       11 |                                                       \n                                                11 |  11 | 111111\\  11\\   11\\ 111111\\    111111\\   111111\\                                 \n                                                1111111  |11  __11\\ 11 |  11 |\\_11  _|  11  __11\\ 11  __11\\                                \n                                                11  __11< 11 /  11 |11 |  11 |  11 |    11111111 |11 |  \\__|                               \n                                                11 |  11 |11 |  11 |11 |  11 |  11 |11\\ 11   ____|11 |                                     \n                                                11 |  11 |\\111111  |\\111111  |  \\1111  |\\1111111\\ 11 |                                     \n                                                \\__|  \\__| \\______/  \\______/    \\____/  \\_______|\\__|                                     \n*/\n\n// File @openzeppelin/contracts/utils/Context.sol@v3.4.1\n\n// SPDX-License-Identifier: MIT\n\npragma solidity >=0.6.0 <0.8.0;\n\n/*\n * @dev Provides information about the current execution context, including the\n * sender of the transaction and its data. While these are generally available\n * via msg.sender and msg.data, they should not be accessed in such a direct\n * manner, since when dealing with GSN meta-transactions the account sending and\n * paying for execution may not be the actual sender (as far as an application\n * is concerned).\n *\n * This contract is only required for intermediate, library-like contracts.\n */\nabstract contract Context {\n    function _msgSender() internal view virtual returns (address payable) {\n        return msg.sender;\n    }\n\n    function _msgData() internal view virtual returns (bytes memory) {\n        this; // silence state mutability warning without generating bytecode - see https://github.com/ethereum/solidity/issues/2691\n        return msg.data;\n    }\n}\n\n\n// File @openzeppelin/contracts/access/Ownable.sol@v3.4.1\n\n\n\npragma solidity >=0.6.0 <0.8.0;\n\n/**\n * @dev Contract module which provides a basic access control mechanism, where\n * there is an account (an owner) that can be granted exclusive access to\n * specific functions.\n *\n * By default, the owner account will be the one that deploys the contract. This\n * can later be changed with {transferOwnership}.\n *\n * This module is used through inheritance. It will make available the modifier\n * `onlyOwner`, which can be applied to your functions to restrict their use to\n * the owner.\n */\nabstract contract Ownable is Context {\n    address private _owner;\n\n    event OwnershipTransferred(address indexed previousOwner, address indexed newOwner);\n\n    /**\n     * @dev Initializes the contract setting the deployer as the initial owner.\n     */\n    constructor () internal {\n        address msgSender = _msgSender();\n        _owner = msgSender;\n        emit OwnershipTransferred(address(0), msgSender);\n    }\n\n    /**\n     * @dev Returns the address of the current owner.\n     */\n    function owner() public view virtual returns (address) {\n        return _owner;\n    }\n\n    /**\n     * @dev Throws if called by any account other than the owner.\n     */\n    modifier onlyOwner() {\n        require(owner() == _msgSender(), \"Ownable: caller is not the owner\");\n        _;\n    }\n\n    /**\n     * @dev Leaves the contract without owner. It will not be possible to call\n     * `onlyOwner` functions anymore. Can only be called by the current owner.\n     *\n     * NOTE: Renouncing ownership will leave the contract without an owner,\n     * thereby removing any functionality that is only available to the owner.\n     */\n    function renounceOwnership() public virtual onlyOwner {\n        emit OwnershipTransferred(_owner, address(0));\n        _owner = address(0);\n    }\n\n    /**\n     * @dev Transfers ownership of the contract to a new account (`newOwner`).\n     * Can only be called by the current owner.\n     */\n    function transferOwnership(address newOwner) public virtual onlyOwner {\n        require(newOwner != address(0), \"Ownable: new owner is the zero address\");\n        emit OwnershipTransferred(_owner, newOwner);\n        _owner = newOwner;\n    }\n}\n\n\n// File @openzeppelin/contracts/token/ERC20/IERC20.sol@v3.4.1\n\n\n\npragma solidity >=0.6.0 <0.8.0;\n\n/**\n * @dev Interface of the ERC20 standard as defined in the EIP.\n */\ninterface IERC20 {\n    /**\n     * @dev Returns the amount of tokens in existence.\n     */\n    function totalSupply() external view returns (uint256);\n\n    /**\n     * @dev Returns the amount of tokens owned by `account`.\n     */\n    function balanceOf(address account) external view returns (uint256);\n\n    /**\n     * @dev Moves `amount` tokens from the caller's account to `recipient`.\n     *\n     * Returns a boolean value indicating whether the operation succeeded.\n     *\n     * Emits a {Transfer} event.\n     */\n    function transfer(address recipient, uint256 amount) external returns (bool);\n\n    /**\n     * @dev Returns the remaining number of tokens that `spender` will be\n     * allowed to spend on behalf of `owner` through {transferFrom}. This is\n     * zero by default.\n     *\n     * This value changes when {approve} or {transferFrom} are called.\n     */\n    function allowance(address owner, address spender) external view returns (uint256);\n\n    /**\n     * @dev Sets `amount` as the allowance of `spender` over the caller's tokens.\n     *\n     * Returns a boolean value indicating whether the operation succeeded.\n     *\n     * IMPORTANT: Beware that changing an allowance with this method brings the risk\n     * that someone may use both the old and the new allowance by unfortunate\n     * transaction ordering. One possible solution to mitigate this race\n     * condition is to first reduce the spender's allowance to 0 and set the\n     * desired value afterwards:\n     * https://github.com/ethereum/EIPs/issues/20#issuecomment-263524729\n     *\n     * Emits an {Approval} event.\n     */\n    function approve(address spender, uint256 amount) external returns (bool);\n\n    /**\n     * @dev Moves `amount` tokens from `sender` to `recipient` using the\n     * allowance mechanism. `amount` is then deducted from the caller's\n     * allowance.\n     *\n     * Returns a boolean value indicating whether the operation succeeded.\n     *\n     * Emits a {Transfer} event.\n     */\n    function transferFrom(address sender, address recipient, uint256 amount) external returns (bool);\n\n    /**\n     * @dev Emitted when `value` tokens are moved from one account (`from`) to\n     * another (`to`).\n     *\n     * Note that `value` may be zero.\n     */\n    event Transfer(address indexed from, address indexed to, uint256 value);\n\n    /**\n     * @dev Emitted when the allowance of a `spender` for an `owner` is set by\n     * a call to {approve}. `value` is the new allowance.\n     */\n    event Approval(address indexed owner, address indexed spender, uint256 value);\n}\n\n\n// File @openzeppelin/contracts/math/SafeMath.sol@v3.4.1\n\n\n\npragma solidity >=0.6.0 <0.8.0;\n\n/**\n * @dev Wrappers over Solidity's arithmetic operations with added overflow\n * checks.\n *\n * Arithmetic operations in Solidity wrap on overflow. This can easily result\n * in bugs, because programmers usually assume that an overflow raises an\n * error, which is the standard behavior in high level programming languages.\n * `SafeMath` restores this intuition by reverting the transaction when an\n * operation overflows.\n *\n * Using this library instead of the unchecked operations eliminates an entire\n * class of bugs, so it's recommended to use it always.\n */\nlibrary SafeMath {\n    /**\n     * @dev Returns the addition of two unsigned integers, with an overflow flag.\n     *\n     * _Available since v3.4._\n     */\n    function tryAdd(uint256 a, uint256 b) internal pure returns (bool, uint256) {\n        uint256 c = a + b;\n        if (c < a) return (false, 0);\n        return (true, c);\n    }\n\n    /**\n     * @dev Returns the substraction of two unsigned integers, with an overflow flag.\n     *\n     * _Available since v3.4._\n     */\n    function trySub(uint256 a, uint256 b) internal pure returns (bool, uint256) {\n        if (b > a) return (false, 0);\n        return (true, a - b);\n    }\n\n    /**\n     * @dev Returns the multiplication of two unsigned integers, with an overflow flag.\n     *\n     * _Available since v3.4._\n     */\n    function tryMul(uint256 a, uint256 b) internal pure returns (bool, uint256) {\n        // Gas optimization: this is cheaper than requiring 'a' not being zero, but the\n        // benefit is lost if 'b' is also tested.\n        // See: https://github.com/OpenZeppelin/openzeppelin-contracts/pull/522\n        if (a == 0) return (true, 0);\n        uint256 c = a * b;\n        if (c / a != b) return (false, 0);\n        return (true, c);\n    }\n\n    /**\n     * @dev Returns the division of two unsigned integers, with a division by zero flag.\n     *\n     * _Available since v3.4._\n     */\n    function tryDiv(uint256 a, uint256 b) internal pure returns (bool, uint256) {\n        if (b == 0) return (false, 0);\n        return (true, a / b);\n    }\n\n    /**\n     * @dev Returns the remainder of dividing two unsigned integers, with a division by zero flag.\n     *\n     * _Available since v3.4._\n     */\n    function tryMod(uint256 a, uint256 b) internal pure returns (bool, uint256) {\n        if (b == 0) return (false, 0);\n        return (true, a % b);\n    }\n\n    /**\n     * @dev Returns the addition of two unsigned integers, reverting on\n     * overflow.\n     *\n     * Counterpart to Solidity's `+` operator.\n     *\n     * Requirements:\n     *\n     * - Addition cannot overflow.\n     */\n    function add(uint256 a, uint256 b) internal pure returns (uint256) {\n        uint256 c = a + b;\n        require(c >= a, \"SafeMath: addition overflow\");\n        return c;\n    }\n\n    /**\n     * @dev Returns the subtraction of two unsigned integers, reverting on\n     * overflow (when the result is negative).\n     *\n     * Counterpart to Solidity's `-` operator.\n     *\n     * Requirements:\n     *\n     * - Subtraction cannot overflow.\n     */\n    function sub(uint256 a, uint256 b) internal pure returns (uint256) {\n        require(b <= a, \"SafeMath: subtraction overflow\");\n        return a - b;\n    }\n\n    /**\n     * @dev Returns the multiplication of two unsigned integers, reverting on\n     * overflow.\n     *\n     * Counterpart to Solidity's `*` operator.\n     *\n     * Requirements:\n     *\n     * - Multiplication cannot overflow.\n     */\n    function mul(uint256 a, uint256 b) internal pure returns (uint256) {\n        if (a == 0) return 0;\n        uint256 c = a * b;\n        require(c / a == b, \"SafeMath: multiplication overflow\");\n        return c;\n    }\n\n    /**\n     * @dev Returns the integer division of two unsigned integers, reverting on\n     * division by zero. The result is rounded towards zero.\n     *\n     * Counterpart to Solidity's `/` operator. Note: this function uses a\n     * `revert` opcode (which leaves remaining gas untouched) while Solidity\n     * uses an invalid opcode to revert (consuming all remaining gas).\n     *\n     * Requirements:\n     *\n     * - The divisor cannot be zero.\n     */\n    function div(uint256 a, uint256 b) internal pure returns (uint256) {\n        require(b > 0, \"SafeMath: division by zero\");\n        return a / b;\n    }\n\n    /**\n     * @dev Returns the remainder of dividing two unsigned integers. (unsigned integer modulo),\n     * reverting when dividing by zero.\n     *\n     * Counterpart to Solidity's `%` operator. This function uses a `revert`\n     * opcode (which leaves remaining gas untouched) while Solidity uses an\n     * invalid opcode to revert (consuming all remaining gas).\n     *\n     * Requirements:\n     *\n     * - The divisor cannot be zero.\n     */\n    function mod(uint256 a, uint256 b) internal pure returns (uint256) {\n        require(b > 0, \"SafeMath: modulo by zero\");\n        return a % b;\n    }\n\n    /**\n     * @dev Returns the subtraction of two unsigned integers, reverting with custom message on\n     * overflow (when the result is negative).\n     *\n     * CAUTION: This function is deprecated because it requires allocating memory for the error\n     * message unnecessarily. For custom revert reasons use {trySub}.\n     *\n     * Counterpart to Solidity's `-` operator.\n     *\n     * Requirements:\n     *\n     * - Subtraction cannot overflow.\n     */\n    function sub(uint256 a, uint256 b, string memory errorMessage) internal pure returns (uint256) {\n        require(b <= a, errorMessage);\n        return a - b;\n    }\n\n    /**\n     * @dev Returns the integer division of two unsigned integers, reverting with custom message on\n     * division by zero. The result is rounded towards zero.\n     *\n     * CAUTION: This function is deprecated because it requires allocating memory for the error\n     * message unnecessarily. For custom revert reasons use {tryDiv}.\n     *\n     * Counterpart to Solidity's `/` operator. Note: this function uses a\n     * `revert` opcode (which leaves remaining gas untouched) while Solidity\n     * uses an invalid opcode to revert (consuming all remaining gas).\n     *\n     * Requirements:\n     *\n     * - The divisor cannot be zero.\n     */\n    function div(uint256 a, uint256 b, string memory errorMessage) internal pure returns (uint256) {\n        require(b > 0, errorMessage);\n        return a / b;\n    }\n\n    /**\n     * @dev Returns the remainder of dividing two unsigned integers. (unsigned integer modulo),\n     * reverting with custom message when dividing by zero.\n     *\n     * CAUTION: This function is deprecated because it requires allocating memory for the error\n     * message unnecessarily. For custom revert reasons use {tryMod}.\n     *\n     * Counterpart to Solidity's `%` operator. This function uses a `revert`\n     * opcode (which leaves remaining gas untouched) while Solidity uses an\n     * invalid opcode to revert (consuming all remaining gas).\n     *\n     * Requirements:\n     *\n     * - The divisor cannot be zero.\n     */\n    function mod(uint256 a, uint256 b, string memory errorMessage) internal pure returns (uint256) {\n        require(b > 0, errorMessage);\n        return a % b;\n    }\n}\n\n\n// File @openzeppelin/contracts/utils/Address.sol@v3.4.1\n\n\n\npragma solidity >=0.6.2 <0.8.0;\n\n/**\n * @dev Collection of functions related to the address type\n */\nlibrary Address {\n    /**\n     * @dev Returns true if `account` is a contract.\n     *\n     * [IMPORTANT]\n     * ====\n     * It is unsafe to assume that an address for which this function returns\n     * false is an externally-owned account (EOA) and not a contract.\n     *\n     * Among others, `isContract` will return false for the following\n     * types of addresses:\n     *\n     *  - an externally-owned account\n     *  - a contract in construction\n     *  - an address where a contract will be created\n     *  - an address where a contract lived, but was destroyed\n     * ====\n     */\n    function isContract(address account) internal view returns (bool) {\n        // This method relies on extcodesize, which returns 0 for contracts in\n        // construction, since the code is only stored at the end of the\n        // constructor execution.\n\n        uint256 size;\n        // solhint-disable-next-line no-inline-assembly\n        assembly { size := extcodesize(account) }\n        return size > 0;\n    }\n\n    /**\n     * @dev Replacement for Solidity's `transfer`: sends `amount` wei to\n     * `recipient`, forwarding all available gas and reverting on errors.\n     *\n     * https://eips.ethereum.org/EIPS/eip-1884[EIP1884] increases the gas cost\n     * of certain opcodes, possibly making contracts go over the 2300 gas limit\n     * imposed by `transfer`, making them unable to receive funds via\n     * `transfer`. {sendValue} removes this limitation.\n     *\n     * https://diligence.consensys.net/posts/2019/09/stop-using-soliditys-transfer-now/[Learn more].\n     *\n     * IMPORTANT: because control is transferred to `recipient`, care must be\n     * taken to not create reentrancy vulnerabilities. Consider using\n     * {ReentrancyGuard} or the\n     * https://solidity.readthedocs.io/en/v0.5.11/security-considerations.html#use-the-checks-effects-interactions-pattern[checks-effects-interactions pattern].\n     */\n    function sendValue(address payable recipient, uint256 amount) internal {\n        require(address(this).balance >= amount, \"Address: insufficient balance\");\n\n        // solhint-disable-next-line avoid-low-level-calls, avoid-call-value\n        (bool success, ) = recipient.call{ value: amount }(\"\");\n        require(success, \"Address: unable to send value, recipient may have reverted\");\n    }\n\n    /**\n     * @dev Performs a Solidity function call using a low level `call`. A\n     * plain`call` is an unsafe replacement for a function call: use this\n     * function instead.\n     *\n     * If `target` reverts with a revert reason, it is bubbled up by this\n     * function (like regular Solidity function calls).\n     *\n     * Returns the raw returned data. To convert to the expected return value,\n     * use https://solidity.readthedocs.io/en/latest/units-and-global-variables.html?highlight=abi.decode#abi-encoding-and-decoding-functions[`abi.decode`].\n     *\n     * Requirements:\n     *\n     * - `target` must be a contract.\n     * - calling `target` with `data` must not revert.\n     *\n     * _Available since v3.1._\n     */\n    function functionCall(address target, bytes memory data) internal returns (bytes memory) {\n      return functionCall(target, data, \"Address: low-level call failed\");\n    }\n\n    /**\n     * @dev Same as {xref-Address-functionCall-address-bytes-}[`functionCall`], but with\n     * `errorMessage` as a fallback revert reason when `target` reverts.\n     *\n     * _Available since v3.1._\n     */\n    function functionCall(address target, bytes memory data, string memory errorMessage) internal returns (bytes memory) {\n        return functionCallWithValue(target, data, 0, errorMessage);\n    }\n\n    /**\n     * @dev Same as {xref-Address-functionCall-address-bytes-}[`functionCall`],\n     * but also transferring `value` wei to `target`.\n     *\n     * Requirements:\n     *\n     * - the calling contract must have an ETH balance of at least `value`.\n     * - the called Solidity function must be `payable`.\n     *\n     * _Available since v3.1._\n     */\n    function functionCallWithValue(address target, bytes memory data, uint256 value) internal returns (bytes memory) {\n        return functionCallWithValue(target, data, value, \"Address: low-level call with value failed\");\n    }\n\n    /**\n     * @dev Same as {xref-Address-functionCallWithValue-address-bytes-uint256-}[`functionCallWithValue`], but\n     * with `errorMessage` as a fallback revert reason when `target` reverts.\n     *\n     * _Available since v3.1._\n     */\n    function functionCallWithValue(address target, bytes memory data, uint256 value, string memory errorMessage) internal returns (bytes memory) {\n        require(address(this).balance >= value, \"Address: insufficient balance for call\");\n        require(isContract(target), \"Address: call to non-contract\");\n\n        // solhint-disable-next-line avoid-low-level-calls\n        (bool success, bytes memory returndata) = target.call{ value: value }(data);\n        return _verifyCallResult(success, returndata, errorMessage);\n    }\n\n    /**\n     * @dev Same as {xref-Address-functionCall-address-bytes-}[`functionCall`],\n     * but performing a static call.\n     *\n     * _Available since v3.3._\n     */\n    function functionStaticCall(address target, bytes memory data) internal view returns (bytes memory) {\n        return functionStaticCall(target, data, \"Address: low-level static call failed\");\n    }\n\n    /**\n     * @dev Same as {xref-Address-functionCall-address-bytes-string-}[`functionCall`],\n     * but performing a static call.\n     *\n     * _Available since v3.3._\n     */\n    function functionStaticCall(address target, bytes memory data, string memory errorMessage) internal view returns (bytes memory) {\n        require(isContract(target), \"Address: static call to non-contract\");\n\n        // solhint-disable-next-line avoid-low-level-calls\n        (bool success, bytes memory returndata) = target.staticcall(data);\n        return _verifyCallResult(success, returndata, errorMessage);\n    }\n\n    /**\n     * @dev Same as {xref-Address-functionCall-address-bytes-}[`functionCall`],\n     * but performing a delegate call.\n     *\n     * _Available since v3.4._\n     */\n    function functionDelegateCall(address target, bytes memory data) internal returns (bytes memory) {\n        return functionDelegateCall(target, data, \"Address: low-level delegate call failed\");\n    }\n\n    /**\n     * @dev Same as {xref-Address-functionCall-address-bytes-string-}[`functionCall`],\n     * but performing a delegate call.\n     *\n     * _Available since v3.4._\n     */\n    function functionDelegateCall(address target, bytes memory data, string memory errorMessage) internal returns (bytes memory) {\n        require(isContract(target), \"Address: delegate call to non-contract\");\n\n        // solhint-disable-next-line avoid-low-level-calls\n        (bool success, bytes memory returndata) = target.delegatecall(data);\n        return _verifyCallResult(success, returndata, errorMessage);\n    }\n\n    function _verifyCallResult(bool success, bytes memory returndata, string memory errorMessage) private pure returns(bytes memory) {\n        if (success) {\n            return returndata;\n        } else {\n            // Look for revert reason and bubble it up if present\n            if (returndata.length > 0) {\n                // The easiest way to bubble the revert reason is using memory via assembly\n\n                // solhint-disable-next-line no-inline-assembly\n                assembly {\n                    let returndata_size := mload(returndata)\n                    revert(add(32, returndata), returndata_size)\n                }\n            } else {\n                revert(errorMessage);\n            }\n        }\n    }\n}\n\n\n// File @openzeppelin/contracts/token/ERC20/SafeERC20.sol@v3.4.1\n\n\n\npragma solidity >=0.6.0 <0.8.0;\n\n\n\n/**\n * @title SafeERC20\n * @dev Wrappers around ERC20 operations that throw on failure (when the token\n * contract returns false). Tokens that return no value (and instead revert or\n * throw on failure) are also supported, non-reverting calls are assumed to be\n * successful.\n * To use this library you can add a `using SafeERC20 for IERC20;` statement to your contract,\n * which allows you to call the safe operations as `token.safeTransfer(...)`, etc.\n */\nlibrary SafeERC20 {\n    using SafeMath for uint256;\n    using Address for address;\n\n    function safeTransfer(IERC20 token, address to, uint256 value) internal {\n        _callOptionalReturn(token, abi.encodeWithSelector(token.transfer.selector, to, value));\n    }\n\n    function safeTransferFrom(IERC20 token, address from, address to, uint256 value) internal {\n        _callOptionalReturn(token, abi.encodeWithSelector(token.transferFrom.selector, from, to, value));\n    }\n\n    /**\n     * @dev Deprecated. This function has issues similar to the ones found in\n     * {IERC20-approve}, and its usage is discouraged.\n     *\n     * Whenever possible, use {safeIncreaseAllowance} and\n     * {safeDecreaseAllowance} instead.\n     */\n    function safeApprove(IERC20 token, address spender, uint256 value) internal {\n        // safeApprove should only be called when setting an initial allowance,\n        // or when resetting it to zero. To increase and decrease it, use\n        // 'safeIncreaseAllowance' and 'safeDecreaseAllowance'\n        // solhint-disable-next-line max-line-length\n        require((value == 0) || (token.allowance(address(this), spender) == 0),\n            \"SafeERC20: approve from non-zero to non-zero allowance\"\n        );\n        _callOptionalReturn(token, abi.encodeWithSelector(token.approve.selector, spender, value));\n    }\n\n    function safeIncreaseAllowance(IERC20 token, address spender, uint256 value) internal {\n        uint256 newAllowance = token.allowance(address(this), spender).add(value);\n        _callOptionalReturn(token, abi.encodeWithSelector(token.approve.selector, spender, newAllowance));\n    }\n\n    function safeDecreaseAllowance(IERC20 token, address spender, uint256 value) internal {\n        uint256 newAllowance = token.allowance(address(this), spender).sub(value, \"SafeERC20: decreased allowance below zero\");\n        _callOptionalReturn(token, abi.encodeWithSelector(token.approve.selector, spender, newAllowance));\n    }\n\n    /**\n     * @dev Imitates a Solidity high-level call (i.e. a regular function call to a contract), relaxing the requirement\n     * on the return value: the return value is optional (but if data is returned, it must not be false).\n     * @param token The token targeted by the call.\n     * @param data The call data (encoded using abi.encode or one of its variants).\n     */\n    function _callOptionalReturn(IERC20 token, bytes memory data) private {\n        // We need to perform a low level call here, to bypass Solidity's return data size checking mechanism, since\n        // we're implementing it ourselves. We use {Address.functionCall} to perform this call, which verifies that\n        // the target address contains contract code and also asserts for success in the low-level call.\n\n        bytes memory returndata = address(token).functionCall(data, \"SafeERC20: low-level call failed\");\n        if (returndata.length > 0) { // Return data is optional\n            // solhint-disable-next-line max-line-length\n            require(abi.decode(returndata, (bool)), \"SafeERC20: ERC20 operation did not succeed\");\n        }\n    }\n}\n\n\n// File contracts/helpers/UniERC20.sol\n\n\n\npragma solidity >=0.6.0 <0.8.0;\n\n\nlibrary UniERC20 {\n    using SafeMath for uint256;\n\n    IERC20 private constant _ETH_ADDRESS = IERC20(0xEeeeeEeeeEeEeeEeEeEeeEEEeeeeEeeeeeeeEEeE);\n    IERC20 private constant _ZERO_ADDRESS = IERC20(0);\n\n    function isETH(IERC20 token) internal pure returns (bool) {\n        return (token == _ZERO_ADDRESS || token == _ETH_ADDRESS);\n    }\n\n    function uniBalanceOf(IERC20 token, address account) internal view returns (uint256) {\n        if (isETH(token)) {\n            return account.balance;\n        } else {\n            return token.balanceOf(account);\n        }\n    }\n\n    function uniTransfer(IERC20 token, address payable to, uint256 amount) internal {\n        if (amount > 0) {\n            if (isETH(token)) {\n                to.transfer(amount);\n            } else {\n                _callOptionalReturn(token, abi.encodeWithSelector(token.transfer.selector, to, amount));\n            }\n        }\n    }\n\n    function uniApprove(IERC20 token, address to, uint256 amount) internal {\n        require(!isETH(token), \"Approve called on ETH\");\n\n        // solhint-disable-next-line avoid-low-level-calls\n        (bool success, bytes memory returndata) = address(token).call(abi.encodeWithSelector(token.approve.selector, to, amount));\n\n        if (!success || (returndata.length > 0 && !abi.decode(returndata, (bool)))) {\n            _callOptionalReturn(token, abi.encodeWithSelector(token.approve.selector, to, 0));\n            _callOptionalReturn(token, abi.encodeWithSelector(token.approve.selector, to, amount));\n        }\n    }\n\n    function _callOptionalReturn(IERC20 token, bytes memory data) private {\n        // solhint-disable-next-line avoid-low-level-calls\n        (bool success, bytes memory returndata) = address(token).call(data);\n        require(success, \"low-level call failed\");\n\n        if (returndata.length > 0) { // Return data is optional\n            require(abi.decode(returndata, (bool)), \"ERC20 operation did not succeed\");\n        }\n    }\n}\n\n\n// File contracts/interfaces/IChi.sol\n\n\n\npragma solidity >=0.6.0 <0.8.0;\n\ninterface IChi is IERC20 {\n    function mint(uint256 value) external;\n    function free(uint256 value) external returns (uint256 freed);\n    function freeFromUpTo(address from, uint256 value) external returns (uint256 freed);\n}\n\n\n// File contracts/interfaces/IGasDiscountExtension.sol\n\n\n\npragma solidity >=0.6.0 <0.8.0;\n\ninterface IGasDiscountExtension {\n    function calculateGas(uint256 gasUsed, uint256 flags, uint256 calldataLength) external view returns (IChi, uint256);\n}\n\n\n// File contracts/interfaces/IAggregationExecutor.sol\n\n\n\npragma solidity >=0.6.0 <0.8.0;\n\ninterface IAggregationExecutor is IGasDiscountExtension {\n    function callBytes(bytes calldata data) external payable;  // 0xd9c45357\n}\n\n\n// File contracts/helpers/RevertReasonParser.sol\n\n\n\npragma solidity >=0.6.0 <0.8.0;\n\n\nlibrary RevertReasonParser {\n    function parse(bytes memory data, string memory prefix) internal pure returns (string memory) {\n        // https://solidity.readthedocs.io/en/latest/control-structures.html#revert\n        // We assume that revert reason is abi-encoded as Error(string)\n\n        // 68 = 4-byte selector 0x08c379a0 + 32 bytes offset + 32 bytes length\n        if (data.length >= 68 && data[0] == \"\\x08\" && data[1] == \"\\xc3\" && data[2] == \"\\x79\" && data[3] == \"\\xa0\") {\n            string memory reason;\n            // solhint-disable no-inline-assembly\n            assembly {\n                // 68 = 32 bytes data length + 4-byte selector + 32 bytes offset\n                reason := add(data, 68)\n            }\n            /*\n                revert reason is padded up to 32 bytes with ABI encoder: Error(string)\n                also sometimes there is extra 32 bytes of zeros padded in the end:\n                https://github.com/ethereum/solidity/issues/10170\n                because of that we can't check for equality and instead check\n                that string length + extra 68 bytes is less than overall data length\n            */\n            require(data.length >= 68 + bytes(reason).length, \"Invalid revert reason\");\n            return string(abi.encodePacked(prefix, \"Error(\", reason, \")\"));\n        }\n        // 36 = 4-byte selector 0x4e487b71 + 32 bytes integer\n        else if (data.length == 36 && data[0] == \"\\x4e\" && data[1] == \"\\x48\" && data[2] == \"\\x7b\" && data[3] == \"\\x71\") {\n            uint256 code;\n            // solhint-disable no-inline-assembly\n            assembly {\n                // 36 = 32 bytes data length + 4-byte selector\n                code := mload(add(data, 36))\n            }\n            return string(abi.encodePacked(prefix, \"Panic(\", _toHex(code), \")\"));\n        }\n\n        return string(abi.encodePacked(prefix, \"Unknown(\", _toHex(data), \")\"));\n    }\n\n    function _toHex(uint256 value) private pure returns(string memory) {\n        return _toHex(abi.encodePacked(value));\n    }\n\n    function _toHex(bytes memory data) private pure returns(string memory) {\n        bytes16 alphabet = 0x30313233343536373839616263646566;\n        bytes memory str = new bytes(2 + data.length * 2);\n        str[0] = \"0\";\n        str[1] = \"x\";\n        for (uint256 i = 0; i < data.length; i++) {\n            str[2 * i + 2] = alphabet[uint8(data[i] >> 4)];\n            str[2 * i + 3] = alphabet[uint8(data[i] & 0x0f)];\n        }\n        return string(str);\n    }\n}\n\n\n// File contracts/interfaces/IERC20Permit.sol\n\n\n\npragma solidity >=0.6.0 <0.8.0;\n\n\ninterface IERC20Permit {\n    function permit(address owner, address spender, uint256 amount, uint256 deadline, uint8 v, bytes32 r, bytes32 s) external;\n}\n\n\n// File contracts/helpers/Permitable.sol\n\n\n\npragma solidity >=0.6.0 <0.8.0;\n\n\n\ncontract Permitable {\n    event Error(\n        string reason\n    );\n\n    function _permit(IERC20 token, uint256 amount, bytes calldata permit) internal {\n        if (permit.length == 32 * 7) {\n            // solhint-disable-next-line avoid-low-level-calls\n            (bool success, bytes memory result) = address(token).call(abi.encodePacked(IERC20Permit.permit.selector, permit));\n            if (!success) {\n                string memory reason = RevertReasonParser.parse(result, \"Permit call failed: \");\n                if (token.allowance(msg.sender, address(this)) < amount) {\n                    revert(reason);\n                } else {\n                    emit Error(reason);\n                }\n            }\n        }\n    }\n}\n\n\n// File contracts/UnoswapRouter.sol\n\n\n\npragma solidity >=0.6.0 <0.8.0;\n\ncontract UnoswapRouter is Permitable {\n    uint256 private constant _TRANSFER_FROM_CALL_SELECTOR_32 = 0x23b872dd00000000000000000000000000000000000000000000000000000000;\n    uint256 private constant _WETH_DEPOSIT_CALL_SELECTOR_32 = 0xd0e30db000000000000000000000000000000000000000000000000000000000;\n    uint256 private constant _WETH_WITHDRAW_CALL_SELECTOR_32 = 0x2e1a7d4d00000000000000000000000000000000000000000000000000000000;\n    uint256 private constant _ERC20_TRANSFER_CALL_SELECTOR_32 = 0xa9059cbb00000000000000000000000000000000000000000000000000000000;\n    uint256 private constant _ADDRESS_MASK =   0x000000000000000000000000ffffffffffffffffffffffffffffffffffffffff;\n    uint256 private constant _REVERSE_MASK =   0x8000000000000000000000000000000000000000000000000000000000000000;\n    uint256 private constant _WETH_MASK =      0x4000000000000000000000000000000000000000000000000000000000000000;\n    uint256 private constant _NUMERATOR_MASK = 0x0000000000000000ffffffff0000000000000000000000000000000000000000;\n    uint256 private constant _WETH = 0x000000000000000000000000C02aaA39b223FE8D0A0e5C4F27eAD9083C756Cc2;\n    uint256 private constant _UNISWAP_PAIR_RESERVES_CALL_SELECTOR_32 = 0x0902f1ac00000000000000000000000000000000000000000000000000000000;\n    uint256 private constant _UNISWAP_PAIR_SWAP_CALL_SELECTOR_32 = 0x022c0d9f00000000000000000000000000000000000000000000000000000000;\n    uint256 private constant _DENOMINATOR = 1000000000;\n    uint256 private constant _NUMERATOR_OFFSET = 160;\n\n    receive() external payable {\n        // solhint-disable-next-line avoid-tx-origin\n        require(msg.sender != tx.origin, \"ETH deposit rejected\");\n    }\n\n    function unoswapWithPermit(\n        IERC20 srcToken,\n        uint256 amount,\n        uint256 minReturn,\n        bytes32[] calldata pools,\n        bytes calldata permit\n    ) external payable returns(uint256 returnAmount) {\n        _permit(srcToken, amount, permit);\n        return unoswap(srcToken, amount, minReturn, pools);\n    }\n\n    function unoswap(\n        IERC20 srcToken,\n        uint256 amount,\n        uint256 minReturn,\n        bytes32[] calldata /* pools */\n    ) public payable returns(uint256 returnAmount) {\n        assembly {  // solhint-disable-line no-inline-assembly\n            function reRevert() {\n                returndatacopy(0, 0, returndatasize())\n                revert(0, returndatasize())\n            }\n\n            function revertWithReason(m, len) {\n                mstore(0, 0x08c379a000000000000000000000000000000000000000000000000000000000)\n                mstore(0x20, 0x0000002000000000000000000000000000000000000000000000000000000000)\n                mstore(0x40, m)\n                revert(0, len)\n            }\n\n            function swap(emptyPtr, swapAmount, pair, reversed, numerator, dst) -> ret {\n                mstore(emptyPtr, _UNISWAP_PAIR_RESERVES_CALL_SELECTOR_32)\n                if iszero(staticcall(gas(), pair, emptyPtr, 0x4, emptyPtr, 0x40)) {\n                    reRevert()\n                }\n\n                let reserve0 := mload(emptyPtr)\n                let reserve1 := mload(add(emptyPtr, 0x20))\n                if reversed {\n                    let tmp := reserve0\n                    reserve0 := reserve1\n                    reserve1 := tmp\n                }\n                ret := mul(swapAmount, numerator)\n                ret := div(mul(ret, reserve1), add(ret, mul(reserve0, _DENOMINATOR)))\n\n                mstore(emptyPtr, _UNISWAP_PAIR_SWAP_CALL_SELECTOR_32)\n                switch reversed\n                case 0 {\n                    mstore(add(emptyPtr, 0x04), 0)\n                    mstore(add(emptyPtr, 0x24), ret)\n                }\n                default {\n                    mstore(add(emptyPtr, 0x04), ret)\n                    mstore(add(emptyPtr, 0x24), 0)\n                }\n                mstore(add(emptyPtr, 0x44), dst)\n                mstore(add(emptyPtr, 0x64), 0x80)\n                mstore(add(emptyPtr, 0x84), 0)\n                if iszero(call(gas(), pair, 0, emptyPtr, 0xa4, 0, 0)) {\n                    reRevert()\n                }\n            }\n\n            let emptyPtr := mload(0x40)\n            mstore(0x40, add(emptyPtr, 0xc0))\n\n            let poolsOffset := add(calldataload(0x64), 0x4)\n            let poolsEndOffset := calldataload(poolsOffset)\n            poolsOffset := add(poolsOffset, 0x20)\n            poolsEndOffset := add(poolsOffset, mul(0x20, poolsEndOffset))\n            let rawPair := calldataload(poolsOffset)\n            switch srcToken\n            case 0 {\n                if iszero(eq(amount, callvalue())) {\n                    revertWithReason(0x00000011696e76616c6964206d73672e76616c75650000000000000000000000, 0x55)  // \"invalid msg.value\"\n                }\n\n                mstore(emptyPtr, _WETH_DEPOSIT_CALL_SELECTOR_32)\n                if iszero(call(gas(), _WETH, amount, emptyPtr, 0x4, 0, 0)) {\n                    reRevert()\n                }\n\n                mstore(emptyPtr, _ERC20_TRANSFER_CALL_SELECTOR_32)\n                mstore(add(emptyPtr, 0x4), and(rawPair, _ADDRESS_MASK))\n                mstore(add(emptyPtr, 0x24), amount)\n                if iszero(call(gas(), _WETH, 0, emptyPtr, 0x44, 0, 0)) {\n                    reRevert()\n                }\n            }\n            default {\n                if callvalue() {\n                    revertWithReason(0x00000011696e76616c6964206d73672e76616c75650000000000000000000000, 0x55)  // \"invalid msg.value\"\n                }\n\n                mstore(emptyPtr, _TRANSFER_FROM_CALL_SELECTOR_32)\n                mstore(add(emptyPtr, 0x4), caller())\n                mstore(add(emptyPtr, 0x24), and(rawPair, _ADDRESS_MASK))\n                mstore(add(emptyPtr, 0x44), amount)\n                if iszero(call(gas(), srcToken, 0, emptyPtr, 0x64, 0, 0)) {\n                    reRevert()\n                }\n            }\n\n            returnAmount := amount\n\n            for {let i := add(poolsOffset, 0x20)} lt(i, poolsEndOffset) {i := add(i, 0x20)} {\n                let nextRawPair := calldataload(i)\n\n                returnAmount := swap(\n                    emptyPtr,\n                    returnAmount,\n                    and(rawPair, _ADDRESS_MASK),\n                    and(rawPair, _REVERSE_MASK),\n                    shr(_NUMERATOR_OFFSET, and(rawPair, _NUMERATOR_MASK)),\n                    and(nextRawPair, _ADDRESS_MASK)\n                )\n\n                rawPair := nextRawPair\n            }\n\n            switch and(rawPair, _WETH_MASK)\n            case 0 {\n                returnAmount := swap(\n                    emptyPtr,\n                    returnAmount,\n                    and(rawPair, _ADDRESS_MASK),\n                    and(rawPair, _REVERSE_MASK),\n                    shr(_NUMERATOR_OFFSET, and(rawPair, _NUMERATOR_MASK)),\n                    caller()\n                )\n            }\n            default {\n                returnAmount := swap(\n                    emptyPtr,\n                    returnAmount,\n                    and(rawPair, _ADDRESS_MASK),\n                    and(rawPair, _REVERSE_MASK),\n                    shr(_NUMERATOR_OFFSET, and(rawPair, _NUMERATOR_MASK)),\n                    address()\n                )\n\n                mstore(emptyPtr, _WETH_WITHDRAW_CALL_SELECTOR_32)\n                mstore(add(emptyPtr, 0x04), returnAmount)\n                if iszero(call(gas(), _WETH, 0, emptyPtr, 0x24, 0, 0)) {\n                    reRevert()\n                }\n\n                if iszero(call(gas(), caller(), returnAmount, 0, 0, 0, 0)) {\n                    reRevert()\n                }\n            }\n\n            if lt(returnAmount, minReturn) {\n                revertWithReason(0x000000164d696e2072657475726e206e6f742072656163686564000000000000, 0x5a)  // \"Min return not reached\"\n            }\n        }\n    }\n}\n\n\n// File contracts/AggregationRouterV3.sol\n\n\n\npragma solidity >=0.6.0 <0.8.0;\npragma experimental ABIEncoderV2;\n\n\n\n\n\n\ncontract AggregationRouterV3 is Ownable, UnoswapRouter {\n    using SafeMath for uint256;\n    using SafeERC20 for IERC20;\n    using UniERC20 for IERC20;\n\n    uint256 private constant _PARTIAL_FILL = 0x01;\n    uint256 private constant _REQUIRES_EXTRA_ETH = 0x02;\n    uint256 private constant _SHOULD_CLAIM = 0x04;\n    uint256 private constant _BURN_FROM_MSG_SENDER = 0x08;\n    uint256 private constant _BURN_FROM_TX_ORIGIN = 0x10;\n\n    struct SwapDescription {\n        IERC20 srcToken;\n        IERC20 dstToken;\n        address srcReceiver;\n        address dstReceiver;\n        uint256 amount;\n        uint256 minReturnAmount;\n        uint256 flags;\n        bytes permit;\n    }\n\n    event Swapped(\n        address sender,\n        IERC20 srcToken,\n        IERC20 dstToken,\n        address dstReceiver,\n        uint256 spentAmount,\n        uint256 returnAmount\n    );\n\n    function discountedSwap(\n        IAggregationExecutor caller,\n        SwapDescription calldata desc,\n        bytes calldata data\n    )\n        external\n        payable\n        returns (uint256 returnAmount, uint256 gasLeft, uint256 chiSpent)\n    {\n        uint256 initialGas = gasleft();\n\n        address chiSource = address(0);\n        if (desc.flags & _BURN_FROM_MSG_SENDER != 0) {\n            chiSource = msg.sender;\n        } else if (desc.flags & _BURN_FROM_TX_ORIGIN != 0) {\n            chiSource = tx.origin; // solhint-disable-line avoid-tx-origin\n        } else {\n            revert(\"Incorrect CHI burn flags\");\n        }\n\n        // solhint-disable-next-line avoid-low-level-calls\n        (bool success, bytes memory returnData) = address(this).delegatecall(abi.encodeWithSelector(this.swap.selector, caller, desc, data));\n        if (success) {\n            (returnAmount,) = abi.decode(returnData, (uint256, uint256));\n        } else {\n            if (msg.value > 0) {\n                msg.sender.transfer(msg.value);\n            }\n            emit Error(RevertReasonParser.parse(returnData, \"Swap failed: \"));\n        }\n\n        (IChi chi, uint256 amount) = caller.calculateGas(initialGas.sub(gasleft()), desc.flags, msg.data.length);\n        if (amount > 0) {\n            chiSpent = chi.freeFromUpTo(chiSource, amount);\n        }\n        gasLeft = gasleft();\n    }\n\n    function swap(\n        IAggregationExecutor caller,\n        SwapDescription calldata desc,\n        bytes calldata data\n    )\n        external\n        payable\n        returns (uint256 returnAmount, uint256 gasLeft)\n    {\n        require(desc.minReturnAmount > 0, \"Min return should not be 0\");\n        require(data.length > 0, \"data should be not zero\");\n\n        uint256 flags = desc.flags;\n        IERC20 srcToken = desc.srcToken;\n        IERC20 dstToken = desc.dstToken;\n\n        if (flags & _REQUIRES_EXTRA_ETH != 0) {\n            require(msg.value > (srcToken.isETH() ? desc.amount : 0), \"Invalid msg.value\");\n        } else {\n            require(msg.value == (srcToken.isETH() ? desc.amount : 0), \"Invalid msg.value\");\n        }\n\n        if (flags & _SHOULD_CLAIM != 0) {\n            require(!srcToken.isETH(), \"Claim token is ETH\");\n            _permit(srcToken, desc.amount, desc.permit);\n            srcToken.safeTransferFrom(msg.sender, desc.srcReceiver, desc.amount);\n        }\n\n        address dstReceiver = (desc.dstReceiver == address(0)) ? msg.sender : desc.dstReceiver;\n        uint256 initialSrcBalance = (flags & _PARTIAL_FILL != 0) ? srcToken.uniBalanceOf(msg.sender) : 0;\n        uint256 initialDstBalance = dstToken.uniBalanceOf(dstReceiver);\n\n        {\n            // solhint-disable-next-line avoid-low-level-calls\n            (bool success, bytes memory result) = address(caller).call{value: msg.value}(abi.encodePacked(caller.callBytes.selector, data));\n            if (!success) {\n                revert(RevertReasonParser.parse(result, \"callBytes failed: \"));\n            }\n        }\n\n        uint256 spentAmount = desc.amount;\n        returnAmount = dstToken.uniBalanceOf(dstReceiver).sub(initialDstBalance);\n\n        if (flags & _PARTIAL_FILL != 0) {\n            spentAmount = initialSrcBalance.add(desc.amount).sub(srcToken.uniBalanceOf(msg.sender));\n            require(returnAmount.mul(desc.amount) >= desc.minReturnAmount.mul(spentAmount), \"Return amount is not enough\");\n        } else {\n            require(returnAmount >= desc.minReturnAmount, \"Return amount is not enough\");\n        }\n\n        emit Swapped(\n            msg.sender,\n            srcToken,\n            dstToken,\n            dstReceiver,\n            spentAmount,\n            returnAmount\n        );\n\n        gasLeft = gasleft();\n    }\n\n    function rescueFunds(IERC20 token, uint256 amount) external onlyOwner {\n        token.uniTransfer(msg.sender, amount);\n    }\n\n    function destroy() external onlyOwner {\n        selfdestruct(msg.sender);\n    }\n}",
  "sourcePath": "contracts/AggregationRouterV3.sol",
  "type": "contract"
}